{"@ironblocks/firewall-consumer/contracts/consumers/VennFirewallConsumer.sol":{"VennFirewallConsumer":{"abi":[{"anonymous":false,"inputs":[{"indexed":false,"internalType":"address","name":"newAdmin","type":"address"}],"name":"FirewallAdminUpdated","type":"event"},{"anonymous":false,"inputs":[{"indexed":false,"internalType":"address","name":"newFirewall","type":"address"}],"name":"FirewallUpdated","type":"event"},{"inputs":[],"name":"acceptFirewallAdmin","outputs":[],"stateMutability":"nonpayable","type":"function"},{"inputs":[],"name":"firewallAdmin","outputs":[{"internalType":"address","name":"","type":"address"}],"stateMutability":"view","type":"function"},{"inputs":[{"internalType":"uint256","name":"userNativeFee","type":"uint256"},{"internalType":"bytes","name":"proxyPayload","type":"bytes"},{"internalType":"bytes","name":"data","type":"bytes"}],"name":"safeFunctionCall","outputs":[],"stateMutability":"payable","type":"function"},{"inputs":[{"internalType":"address","name":"attestationCenterProxy","type":"address"}],"name":"setAttestationCenterProxy","outputs":[],"stateMutability":"nonpayable","type":"function"},{"inputs":[{"internalType":"address","name":"_firewall","type":"address"}],"name":"setFirewall","outputs":[],"stateMutability":"nonpayable","type":"function"},{"inputs":[{"internalType":"address","name":"_firewallAdmin","type":"address"}],"name":"setFirewallAdmin","outputs":[],"stateMutability":"nonpayable","type":"function"}],"evm":{"bytecode":{"linkReferences":{},"object":"60806040523480156200001157600080fd5b506000336200005b60017f5dd2e3b890564a8f99f7f203f226a27a8aa59aee19a4ece5cf5eaa77ab91f66260001c6200004b91906200017e565b60001b836200013760201b60201c565b620000a160017f29982a6ac507a2a707ced6dee5d76285dd49725db977de83d9702c628c97413660001c6200009191906200017e565b60001b826200013760201b60201c565b620000e860017f471011fb6f6f818490c7275a3f5781bd5ea022cb5a243dd8f2d009d0882c74a360001c620000d791906200017e565b60001b60016200013760201b60201c565b6200012f60017f649dd3ecd011e05f7b661f5786e7205a54d2201cb71ede57000d4047776e204060001c6200011e91906200017e565b60001b60016200013e60201b60201c565b5050620001b9565b8082555050565b8082555050565b6000819050919050565b7f4e487b7100000000000000000000000000000000000000000000000000000000600052601160045260246000fd5b60006200018b8262000145565b9150620001988362000145565b9250828203905081811115620001b357620001b26200014f565b5b92915050565b61131780620001c96000396000f3fe6080604052600436106100555760003560e01c806354222e6c1461005a578063734b7198146100835780637c65c38b146100ac5780638c36d02d146100c3578063cb09f61f146100ec578063f05c858214610108575b600080fd5b34801561006657600080fd5b50610081600480360381019061007c9190610c23565b610133565b005b34801561008f57600080fd5b506100aa60048036038101906100a59190610c23565b610269565b005b3480156100b857600080fd5b506100c16103bf565b005b3480156100cf57600080fd5b506100ea60048036038101906100e59190610c23565b6104dc565b005b61010660048036038101906101019190610ceb565b6105fa565b005b34801561011457600080fd5b5061011d610795565b60405161012a9190610d8f565b60405180910390f35b61016e60017f29982a6ac507a2a707ced6dee5d76285dd49725db977de83d9702c628c97413660001c6101669190610dd9565b60001b6107d7565b73ffffffffffffffffffffffffffffffffffffffff163373ffffffffffffffffffffffffffffffffffffffff16146101db576040517f08c379a00000000000000000000000000000000000000000000000000000000081526004016101d290610e90565b60405180910390fd5b600073ffffffffffffffffffffffffffffffffffffffff168173ffffffffffffffffffffffffffffffffffffffff161461022a5761022081630c908cff60e01b6107e2565b61022957600080fd5b5b61026660017fbb5f5c81badac71dead5c1b29002ce6bbac893e2645c265b13d7499de81ab6e160001c61025d9190610dd9565b60001b826108a1565b50565b6102a460017f29982a6ac507a2a707ced6dee5d76285dd49725db977de83d9702c628c97413660001c61029c9190610dd9565b60001b6107d7565b73ffffffffffffffffffffffffffffffffffffffff163373ffffffffffffffffffffffffffffffffffffffff1614610311576040517f08c379a000000000000000000000000000000000000000000000000000000000815260040161030890610e90565b60405180910390fd5b600073ffffffffffffffffffffffffffffffffffffffff168173ffffffffffffffffffffffffffffffffffffffff1603610380576040517f08c379a000000000000000000000000000000000000000000000000000000000815260040161037790610efc565b60405180910390fd5b6103bc60017f8583d637b7eb6415d11ef26648cf0702cf161a357dfe51b6ff7a332110d4bdd360001c6103b39190610dd9565b60001b826108a1565b50565b6103fa60017f8583d637b7eb6415d11ef26648cf0702cf161a357dfe51b6ff7a332110d4bdd360001c6103f29190610dd9565b60001b6107d7565b73ffffffffffffffffffffffffffffffffffffffff163373ffffffffffffffffffffffffffffffffffffffff1614610467576040517f08c379a000000000000000000000000000000000000000000000000000000000815260040161045e90610f68565b60405180910390fd5b6104a360017f29982a6ac507a2a707ced6dee5d76285dd49725db977de83d9702c628c97413660001c61049a9190610dd9565b60001b336108a1565b7f2763a008a9a724a5da2f35346041f5c552001ab556d786252e1ff4ff798dfc1b336040516104d29190610d8f565b60405180910390a1565b61051760017f29982a6ac507a2a707ced6dee5d76285dd49725db977de83d9702c628c97413660001c61050f9190610dd9565b60001b6107d7565b73ffffffffffffffffffffffffffffffffffffffff163373ffffffffffffffffffffffffffffffffffffffff1614610584576040517f08c379a000000000000000000000000000000000000000000000000000000000815260040161057b90610e90565b60405180910390fd5b6105c060017f5dd2e3b890564a8f99f7f203f226a27a8aa59aee19a4ece5cf5eaa77ab91f66260001c6105b79190610dd9565b60001b826108a1565b7f60c1452966d777aab347837b9ceeaa613af32925b5aab43918e878fd03608670816040516105ef9190610d8f565b60405180910390a150565b8434101561063d576040517f08c379a000000000000000000000000000000000000000000000000000000000815260040161063490610ffa565b60405180910390fd5b610646856108a8565b600061068360017fbb5f5c81badac71dead5c1b29002ce6bbac893e2645c265b13d7499de81ab6e160001c61067b9190610dd9565b60001b6107d7565b905060008173ffffffffffffffffffffffffffffffffffffffff168787876040516106af929190611059565b60006040518083038185875af1925050503d80600081146106ec576040519150601f19603f3d011682016040523d82523d6000602084013e6106f1565b606091505b5050905080610735576040517f08c379a000000000000000000000000000000000000000000000000000000000815260040161072c906110e4565b60405180910390fd5b6107833085858080601f016020809104026020016040519081016040528093929190818152602001838380828437600081840152601f19601f82011690508083019250505050505050610960565b5061078c61098d565b50505050505050565b60006107d260017f29982a6ac507a2a707ced6dee5d76285dd49725db977de83d9702c628c97413660001c6107ca9190610dd9565b60001b6107d7565b905090565b600081549050919050565b6000806301ffc9a760e01b836040516024016107fe919061113f565b604051602081830303815290604052907bffffffffffffffffffffffffffffffffffffffffffffffffffffffff19166020820180517bffffffffffffffffffffffffffffffffffffffffffffffffffffffff838183161783525050505090506000806000602060008551602087018a617530fa92503d91506000519050828015610889575060208210155b80156108955750600081115b94505050505092915050565b8082555050565b6108e460017f471011fb6f6f818490c7275a3f5781bd5ea022cb5a243dd8f2d009d0882c74a360001c6108db9190610dd9565b60001b336108a1565b61092160017f649dd3ecd011e05f7b661f5786e7205a54d2201cb71ede57000d4047776e204060001c6109179190610dd9565b60001b6002610a46565b61095d60017f249fe6ee22e6e15273c690c436e9cd06968fe8fb9e18a17365c2d2aa2add4e7260001c6109549190610dd9565b60001b82610a46565b50565b606061098583836040518060600160405280602781526020016112bb60279139610a4d565b905092915050565b6109ca60017f471011fb6f6f818490c7275a3f5781bd5ea022cb5a243dd8f2d009d0882c74a360001c6109c09190610dd9565b60001b60016108a1565b610a0760017f649dd3ecd011e05f7b661f5786e7205a54d2201cb71ede57000d4047776e204060001c6109fd9190610dd9565b60001b6001610a46565b610a4460017f249fe6ee22e6e15273c690c436e9cd06968fe8fb9e18a17365c2d2aa2add4e7260001c610a3a9190610dd9565b60001b6000610a46565b565b8082555050565b60606000808573ffffffffffffffffffffffffffffffffffffffff1685604051610a7791906111c0565b600060405180830381855af49150503d8060008114610ab2576040519150601f19603f3d011682016040523d82523d6000602084013e610ab7565b606091505b5091509150610ac886838387610ad3565b925050509392505050565b60608315610b35576000835103610b2d57610aed85610b48565b610b2c576040517f08c379a0000000000000000000000000000000000000000000000000000000008152600401610b2390611223565b60405180910390fd5b5b829050610b40565b610b3f8383610b6b565b5b949350505050565b6000808273ffffffffffffffffffffffffffffffffffffffff163b119050919050565b600082511115610b7e5781518083602001fd5b806040517f08c379a0000000000000000000000000000000000000000000000000000000008152600401610bb29190611298565b60405180910390fd5b600080fd5b600080fd5b600073ffffffffffffffffffffffffffffffffffffffff82169050919050565b6000610bf082610bc5565b9050919050565b610c0081610be5565b8114610c0b57600080fd5b50565b600081359050610c1d81610bf7565b92915050565b600060208284031215610c3957610c38610bbb565b5b6000610c4784828501610c0e565b91505092915050565b6000819050919050565b610c6381610c50565b8114610c6e57600080fd5b50565b600081359050610c8081610c5a565b92915050565b600080fd5b600080fd5b600080fd5b60008083601f840112610cab57610caa610c86565b5b8235905067ffffffffffffffff811115610cc857610cc7610c8b565b5b602083019150836001820283011115610ce457610ce3610c90565b5b9250929050565b600080600080600060608688031215610d0757610d06610bbb565b5b6000610d1588828901610c71565b955050602086013567ffffffffffffffff811115610d3657610d35610bc0565b5b610d4288828901610c95565b9450945050604086013567ffffffffffffffff811115610d6557610d64610bc0565b5b610d7188828901610c95565b92509250509295509295909350565b610d8981610be5565b82525050565b6000602082019050610da46000830184610d80565b92915050565b7f4e487b7100000000000000000000000000000000000000000000000000000000600052601160045260246000fd5b6000610de482610c50565b9150610def83610c50565b9250828203905081811115610e0757610e06610daa565b5b92915050565b600082825260208201905092915050565b7f4669726577616c6c436f6e73756d65723a206e6f74206669726577616c6c206160008201527f646d696e00000000000000000000000000000000000000000000000000000000602082015250565b6000610e7a602483610e0d565b9150610e8582610e1e565b604082019050919050565b60006020820190508181036000830152610ea981610e6d565b9050919050565b7f4669726577616c6c436f6e73756d65723a207a65726f20616464726573730000600082015250565b6000610ee6601e83610e0d565b9150610ef182610eb0565b602082019050919050565b60006020820190508181036000830152610f1581610ed9565b9050919050565b7f4669726577616c6c436f6e73756d65723a206e6f74206e65772061646d696e00600082015250565b6000610f52601f83610e0d565b9150610f5d82610f1c565b602082019050919050565b60006020820190508181036000830152610f8181610f45565b9050919050565b7f56656e6e4669726577616c6c436f6e73756d65723a204e6f7420656e6f75676860008201527f2045544820666f72206665650000000000000000000000000000000000000000602082015250565b6000610fe4602c83610e0d565b9150610fef82610f88565b604082019050919050565b6000602082019050818103600083015261101381610fd7565b9050919050565b600081905092915050565b82818337600083830152505050565b6000611040838561101a565b935061104d838584611025565b82840190509392505050565b6000611066828486611034565b91508190509392505050565b7f56656e6e4669726577616c6c436f6e73756d65723a2050726f78792063616c6c60008201527f206661696c656400000000000000000000000000000000000000000000000000602082015250565b60006110ce602783610e0d565b91506110d982611072565b604082019050919050565b600060208201905081810360008301526110fd816110c1565b9050919050565b60007fffffffff0000000000000000000000000000000000000000000000000000000082169050919050565b61113981611104565b82525050565b60006020820190506111546000830184611130565b92915050565b600081519050919050565b60005b83811015611183578082015181840152602081019050611168565b60008484015250505050565b600061119a8261115a565b6111a4818561101a565b93506111b4818560208601611165565b80840191505092915050565b60006111cc828461118f565b915081905092915050565b7f416464726573733a2063616c6c20746f206e6f6e2d636f6e7472616374000000600082015250565b600061120d601d83610e0d565b9150611218826111d7565b602082019050919050565b6000602082019050818103600083015261123c81611200565b9050919050565b600081519050919050565b6000601f19601f8301169050919050565b600061126a82611243565b6112748185610e0d565b9350611284818560208601611165565b61128d8161124e565b840191505092915050565b600060208201905081810360008301526112b2818461125f565b90509291505056fe416464726573733a206c6f772d6c6576656c2064656c65676174652063616c6c206661696c6564a264697066735822122015f1595121ccf7e148c15f77d33412e5f29d71d8fa227c4987471bd7b03fd47164736f6c63430008170033","opcodes":"PUSH1 0x80 PUSH1 0x40 MSTORE CALLVALUE DUP1 ISZERO PUSH3 0x11 JUMPI PUSH1 0x0 DUP1 REVERT JUMPDEST POP PUSH1 0x0 CALLER PUSH3 0x5B PUSH1 0x1 PUSH32 0x5DD2E3B890564A8F99F7F203F226A27A8AA59AEE19A4ECE5CF5EAA77AB91F662 PUSH1 0x0 SHR PUSH3 0x4B SWAP2 SWAP1 PUSH3 0x17E JUMP JUMPDEST PUSH1 0x0 SHL DUP4 PUSH3 0x137 PUSH1 0x20 SHL PUSH1 0x20 SHR JUMP JUMPDEST PUSH3 0xA1 PUSH1 0x1 PUSH32 0x29982A6AC507A2A707CED6DEE5D76285DD49725DB977DE83D9702C628C974136 PUSH1 0x0 SHR PUSH3 0x91 SWAP2 SWAP1 PUSH3 0x17E JUMP JUMPDEST PUSH1 0x0 SHL DUP3 PUSH3 0x137 PUSH1 0x20 SHL PUSH1 0x20 SHR JUMP JUMPDEST PUSH3 0xE8 PUSH1 0x1 PUSH32 0x471011FB6F6F818490C7275A3F5781BD5EA022CB5A243DD8F2D009D0882C74A3 PUSH1 0x0 SHR PUSH3 0xD7 SWAP2 SWAP1 PUSH3 0x17E JUMP JUMPDEST PUSH1 0x0 SHL PUSH1 0x1 PUSH3 0x137 PUSH1 0x20 SHL PUSH1 0x20 SHR JUMP JUMPDEST PUSH3 0x12F PUSH1 0x1 PUSH32 0x649DD3ECD011E05F7B661F5786E7205A54D2201CB71EDE57000D4047776E2040 PUSH1 0x0 SHR PUSH3 0x11E SWAP2 SWAP1 PUSH3 0x17E JUMP JUMPDEST PUSH1 0x0 SHL PUSH1 0x1 PUSH3 0x13E PUSH1 0x20 SHL PUSH1 0x20 SHR JUMP JUMPDEST POP POP PUSH3 0x1B9 JUMP JUMPDEST DUP1 DUP3 SSTORE POP POP JUMP JUMPDEST DUP1 DUP3 SSTORE POP POP JUMP JUMPDEST PUSH1 0x0 DUP2 SWAP1 POP SWAP2 SWAP1 POP JUMP JUMPDEST PUSH32 0x4E487B7100000000000000000000000000000000000000000000000000000000 PUSH1 0x0 MSTORE PUSH1 0x11 PUSH1 0x4 MSTORE PUSH1 0x24 PUSH1 0x0 REVERT JUMPDEST PUSH1 0x0 PUSH3 0x18B DUP3 PUSH3 0x145 JUMP JUMPDEST SWAP2 POP PUSH3 0x198 DUP4 PUSH3 0x145 JUMP JUMPDEST SWAP3 POP DUP3 DUP3 SUB SWAP1 POP DUP2 DUP2 GT ISZERO PUSH3 0x1B3 JUMPI PUSH3 0x1B2 PUSH3 0x14F JUMP JUMPDEST JUMPDEST SWAP3 SWAP2 POP POP JUMP JUMPDEST PUSH2 0x1317 DUP1 PUSH3 0x1C9 PUSH1 0x0 CODECOPY PUSH1 0x0 RETURN INVALID PUSH1 0x80 PUSH1 0x40 MSTORE PUSH1 0x4 CALLDATASIZE LT PUSH2 0x55 JUMPI PUSH1 0x0 CALLDATALOAD PUSH1 0xE0 SHR DUP1 PUSH4 0x54222E6C EQ PUSH2 0x5A JUMPI DUP1 PUSH4 0x734B7198 EQ PUSH2 0x83 JUMPI DUP1 PUSH4 0x7C65C38B EQ PUSH2 0xAC JUMPI DUP1 PUSH4 0x8C36D02D EQ PUSH2 0xC3 JUMPI DUP1 PUSH4 0xCB09F61F EQ PUSH2 0xEC JUMPI DUP1 PUSH4 0xF05C8582 EQ PUSH2 0x108 JUMPI JUMPDEST PUSH1 0x0 DUP1 REVERT JUMPDEST CALLVALUE DUP1 ISZERO PUSH2 0x66 JUMPI PUSH1 0x0 DUP1 REVERT JUMPDEST POP PUSH2 0x81 PUSH1 0x4 DUP1 CALLDATASIZE SUB DUP2 ADD SWAP1 PUSH2 0x7C SWAP2 SWAP1 PUSH2 0xC23 JUMP JUMPDEST PUSH2 0x133 JUMP JUMPDEST STOP JUMPDEST CALLVALUE DUP1 ISZERO PUSH2 0x8F JUMPI PUSH1 0x0 DUP1 REVERT JUMPDEST POP PUSH2 0xAA PUSH1 0x4 DUP1 CALLDATASIZE SUB DUP2 ADD SWAP1 PUSH2 0xA5 SWAP2 SWAP1 PUSH2 0xC23 JUMP JUMPDEST PUSH2 0x269 JUMP JUMPDEST STOP JUMPDEST CALLVALUE DUP1 ISZERO PUSH2 0xB8 JUMPI PUSH1 0x0 DUP1 REVERT JUMPDEST POP PUSH2 0xC1 PUSH2 0x3BF JUMP JUMPDEST STOP JUMPDEST CALLVALUE DUP1 ISZERO PUSH2 0xCF JUMPI PUSH1 0x0 DUP1 REVERT JUMPDEST POP PUSH2 0xEA PUSH1 0x4 DUP1 CALLDATASIZE SUB DUP2 ADD SWAP1 PUSH2 0xE5 SWAP2 SWAP1 PUSH2 0xC23 JUMP JUMPDEST PUSH2 0x4DC JUMP JUMPDEST STOP JUMPDEST PUSH2 0x106 PUSH1 0x4 DUP1 CALLDATASIZE SUB DUP2 ADD SWAP1 PUSH2 0x101 SWAP2 SWAP1 PUSH2 0xCEB JUMP JUMPDEST PUSH2 0x5FA JUMP JUMPDEST STOP JUMPDEST CALLVALUE DUP1 ISZERO PUSH2 0x114 JUMPI PUSH1 0x0 DUP1 REVERT JUMPDEST POP PUSH2 0x11D PUSH2 0x795 JUMP JUMPDEST PUSH1 0x40 MLOAD PUSH2 0x12A SWAP2 SWAP1 PUSH2 0xD8F JUMP JUMPDEST PUSH1 0x40 MLOAD DUP1 SWAP2 SUB SWAP1 RETURN JUMPDEST PUSH2 0x16E PUSH1 0x1 PUSH32 0x29982A6AC507A2A707CED6DEE5D76285DD49725DB977DE83D9702C628C974136 PUSH1 0x0 SHR PUSH2 0x166 SWAP2 SWAP1 PUSH2 0xDD9 JUMP JUMPDEST PUSH1 0x0 SHL PUSH2 0x7D7 JUMP JUMPDEST PUSH20 0xFFFFFFFFFFFFFFFFFFFFFFFFFFFFFFFFFFFFFFFF AND CALLER PUSH20 0xFFFFFFFFFFFFFFFFFFFFFFFFFFFFFFFFFFFFFFFF AND EQ PUSH2 0x1DB JUMPI PUSH1 0x40 MLOAD PUSH32 0x8C379A000000000000000000000000000000000000000000000000000000000 DUP2 MSTORE PUSH1 0x4 ADD PUSH2 0x1D2 SWAP1 PUSH2 0xE90 JUMP JUMPDEST PUSH1 0x40 MLOAD DUP1 SWAP2 SUB SWAP1 REVERT JUMPDEST PUSH1 0x0 PUSH20 0xFFFFFFFFFFFFFFFFFFFFFFFFFFFFFFFFFFFFFFFF AND DUP2 PUSH20 0xFFFFFFFFFFFFFFFFFFFFFFFFFFFFFFFFFFFFFFFF AND EQ PUSH2 0x22A JUMPI PUSH2 0x220 DUP2 PUSH4 0xC908CFF PUSH1 0xE0 SHL PUSH2 0x7E2 JUMP JUMPDEST PUSH2 0x229 JUMPI PUSH1 0x0 DUP1 REVERT JUMPDEST JUMPDEST PUSH2 0x266 PUSH1 0x1 PUSH32 0xBB5F5C81BADAC71DEAD5C1B29002CE6BBAC893E2645C265B13D7499DE81AB6E1 PUSH1 0x0 SHR PUSH2 0x25D SWAP2 SWAP1 PUSH2 0xDD9 JUMP JUMPDEST PUSH1 0x0 SHL DUP3 PUSH2 0x8A1 JUMP JUMPDEST POP JUMP JUMPDEST PUSH2 0x2A4 PUSH1 0x1 PUSH32 0x29982A6AC507A2A707CED6DEE5D76285DD49725DB977DE83D9702C628C974136 PUSH1 0x0 SHR PUSH2 0x29C SWAP2 SWAP1 PUSH2 0xDD9 JUMP JUMPDEST PUSH1 0x0 SHL PUSH2 0x7D7 JUMP JUMPDEST PUSH20 0xFFFFFFFFFFFFFFFFFFFFFFFFFFFFFFFFFFFFFFFF AND CALLER PUSH20 0xFFFFFFFFFFFFFFFFFFFFFFFFFFFFFFFFFFFFFFFF AND EQ PUSH2 0x311 JUMPI PUSH1 0x40 MLOAD PUSH32 0x8C379A000000000000000000000000000000000000000000000000000000000 DUP2 MSTORE PUSH1 0x4 ADD PUSH2 0x308 SWAP1 PUSH2 0xE90 JUMP JUMPDEST PUSH1 0x40 MLOAD DUP1 SWAP2 SUB SWAP1 REVERT JUMPDEST PUSH1 0x0 PUSH20 0xFFFFFFFFFFFFFFFFFFFFFFFFFFFFFFFFFFFFFFFF AND DUP2 PUSH20 0xFFFFFFFFFFFFFFFFFFFFFFFFFFFFFFFFFFFFFFFF AND SUB PUSH2 0x380 JUMPI PUSH1 0x40 MLOAD PUSH32 0x8C379A000000000000000000000000000000000000000000000000000000000 DUP2 MSTORE PUSH1 0x4 ADD PUSH2 0x377 SWAP1 PUSH2 0xEFC JUMP JUMPDEST PUSH1 0x40 MLOAD DUP1 SWAP2 SUB SWAP1 REVERT JUMPDEST PUSH2 0x3BC PUSH1 0x1 PUSH32 0x8583D637B7EB6415D11EF26648CF0702CF161A357DFE51B6FF7A332110D4BDD3 PUSH1 0x0 SHR PUSH2 0x3B3 SWAP2 SWAP1 PUSH2 0xDD9 JUMP JUMPDEST PUSH1 0x0 SHL DUP3 PUSH2 0x8A1 JUMP JUMPDEST POP JUMP JUMPDEST PUSH2 0x3FA PUSH1 0x1 PUSH32 0x8583D637B7EB6415D11EF26648CF0702CF161A357DFE51B6FF7A332110D4BDD3 PUSH1 0x0 SHR PUSH2 0x3F2 SWAP2 SWAP1 PUSH2 0xDD9 JUMP JUMPDEST PUSH1 0x0 SHL PUSH2 0x7D7 JUMP JUMPDEST PUSH20 0xFFFFFFFFFFFFFFFFFFFFFFFFFFFFFFFFFFFFFFFF AND CALLER PUSH20 0xFFFFFFFFFFFFFFFFFFFFFFFFFFFFFFFFFFFFFFFF AND EQ PUSH2 0x467 JUMPI PUSH1 0x40 MLOAD PUSH32 0x8C379A000000000000000000000000000000000000000000000000000000000 DUP2 MSTORE PUSH1 0x4 ADD PUSH2 0x45E SWAP1 PUSH2 0xF68 JUMP JUMPDEST PUSH1 0x40 MLOAD DUP1 SWAP2 SUB SWAP1 REVERT JUMPDEST PUSH2 0x4A3 PUSH1 0x1 PUSH32 0x29982A6AC507A2A707CED6DEE5D76285DD49725DB977DE83D9702C628C974136 PUSH1 0x0 SHR PUSH2 0x49A SWAP2 SWAP1 PUSH2 0xDD9 JUMP JUMPDEST PUSH1 0x0 SHL CALLER PUSH2 0x8A1 JUMP JUMPDEST PUSH32 0x2763A008A9A724A5DA2F35346041F5C552001AB556D786252E1FF4FF798DFC1B CALLER PUSH1 0x40 MLOAD PUSH2 0x4D2 SWAP2 SWAP1 PUSH2 0xD8F JUMP JUMPDEST PUSH1 0x40 MLOAD DUP1 SWAP2 SUB SWAP1 LOG1 JUMP JUMPDEST PUSH2 0x517 PUSH1 0x1 PUSH32 0x29982A6AC507A2A707CED6DEE5D76285DD49725DB977DE83D9702C628C974136 PUSH1 0x0 SHR PUSH2 0x50F SWAP2 SWAP1 PUSH2 0xDD9 JUMP JUMPDEST PUSH1 0x0 SHL PUSH2 0x7D7 JUMP JUMPDEST PUSH20 0xFFFFFFFFFFFFFFFFFFFFFFFFFFFFFFFFFFFFFFFF AND CALLER PUSH20 0xFFFFFFFFFFFFFFFFFFFFFFFFFFFFFFFFFFFFFFFF AND EQ PUSH2 0x584 JUMPI PUSH1 0x40 MLOAD PUSH32 0x8C379A000000000000000000000000000000000000000000000000000000000 DUP2 MSTORE PUSH1 0x4 ADD PUSH2 0x57B SWAP1 PUSH2 0xE90 JUMP JUMPDEST PUSH1 0x40 MLOAD DUP1 SWAP2 SUB SWAP1 REVERT JUMPDEST PUSH2 0x5C0 PUSH1 0x1 PUSH32 0x5DD2E3B890564A8F99F7F203F226A27A8AA59AEE19A4ECE5CF5EAA77AB91F662 PUSH1 0x0 SHR PUSH2 0x5B7 SWAP2 SWAP1 PUSH2 0xDD9 JUMP JUMPDEST PUSH1 0x0 SHL DUP3 PUSH2 0x8A1 JUMP JUMPDEST PUSH32 0x60C1452966D777AAB347837B9CEEAA613AF32925B5AAB43918E878FD03608670 DUP2 PUSH1 0x40 MLOAD PUSH2 0x5EF SWAP2 SWAP1 PUSH2 0xD8F JUMP JUMPDEST PUSH1 0x40 MLOAD DUP1 SWAP2 SUB SWAP1 LOG1 POP JUMP JUMPDEST DUP5 CALLVALUE LT ISZERO PUSH2 0x63D JUMPI PUSH1 0x40 MLOAD PUSH32 0x8C379A000000000000000000000000000000000000000000000000000000000 DUP2 MSTORE PUSH1 0x4 ADD PUSH2 0x634 SWAP1 PUSH2 0xFFA JUMP JUMPDEST PUSH1 0x40 MLOAD DUP1 SWAP2 SUB SWAP1 REVERT JUMPDEST PUSH2 0x646 DUP6 PUSH2 0x8A8 JUMP JUMPDEST PUSH1 0x0 PUSH2 0x683 PUSH1 0x1 PUSH32 0xBB5F5C81BADAC71DEAD5C1B29002CE6BBAC893E2645C265B13D7499DE81AB6E1 PUSH1 0x0 SHR PUSH2 0x67B SWAP2 SWAP1 PUSH2 0xDD9 JUMP JUMPDEST PUSH1 0x0 SHL PUSH2 0x7D7 JUMP JUMPDEST SWAP1 POP PUSH1 0x0 DUP2 PUSH20 0xFFFFFFFFFFFFFFFFFFFFFFFFFFFFFFFFFFFFFFFF AND DUP8 DUP8 DUP8 PUSH1 0x40 MLOAD PUSH2 0x6AF SWAP3 SWAP2 SWAP1 PUSH2 0x1059 JUMP JUMPDEST PUSH1 0x0 PUSH1 0x40 MLOAD DUP1 DUP4 SUB DUP2 DUP6 DUP8 GAS CALL SWAP3 POP POP POP RETURNDATASIZE DUP1 PUSH1 0x0 DUP2 EQ PUSH2 0x6EC JUMPI PUSH1 0x40 MLOAD SWAP2 POP PUSH1 0x1F NOT PUSH1 0x3F RETURNDATASIZE ADD AND DUP3 ADD PUSH1 0x40 MSTORE RETURNDATASIZE DUP3 MSTORE RETURNDATASIZE PUSH1 0x0 PUSH1 0x20 DUP5 ADD RETURNDATACOPY PUSH2 0x6F1 JUMP JUMPDEST PUSH1 0x60 SWAP2 POP JUMPDEST POP POP SWAP1 POP DUP1 PUSH2 0x735 JUMPI PUSH1 0x40 MLOAD PUSH32 0x8C379A000000000000000000000000000000000000000000000000000000000 DUP2 MSTORE PUSH1 0x4 ADD PUSH2 0x72C SWAP1 PUSH2 0x10E4 JUMP JUMPDEST PUSH1 0x40 MLOAD DUP1 SWAP2 SUB SWAP1 REVERT JUMPDEST PUSH2 0x783 ADDRESS DUP6 DUP6 DUP1 DUP1 PUSH1 0x1F ADD PUSH1 0x20 DUP1 SWAP2 DIV MUL PUSH1 0x20 ADD PUSH1 0x40 MLOAD SWAP1 DUP2 ADD PUSH1 0x40 MSTORE DUP1 SWAP4 SWAP3 SWAP2 SWAP1 DUP2 DUP2 MSTORE PUSH1 0x20 ADD DUP4 DUP4 DUP1 DUP3 DUP5 CALLDATACOPY PUSH1 0x0 DUP2 DUP5 ADD MSTORE PUSH1 0x1F NOT PUSH1 0x1F DUP3 ADD AND SWAP1 POP DUP1 DUP4 ADD SWAP3 POP POP POP POP POP POP POP PUSH2 0x960 JUMP JUMPDEST POP PUSH2 0x78C PUSH2 0x98D JUMP JUMPDEST POP POP POP POP POP POP POP JUMP JUMPDEST PUSH1 0x0 PUSH2 0x7D2 PUSH1 0x1 PUSH32 0x29982A6AC507A2A707CED6DEE5D76285DD49725DB977DE83D9702C628C974136 PUSH1 0x0 SHR PUSH2 0x7CA SWAP2 SWAP1 PUSH2 0xDD9 JUMP JUMPDEST PUSH1 0x0 SHL PUSH2 0x7D7 JUMP JUMPDEST SWAP1 POP SWAP1 JUMP JUMPDEST PUSH1 0x0 DUP2 SLOAD SWAP1 POP SWAP2 SWAP1 POP JUMP JUMPDEST PUSH1 0x0 DUP1 PUSH4 0x1FFC9A7 PUSH1 0xE0 SHL DUP4 PUSH1 0x40 MLOAD PUSH1 0x24 ADD PUSH2 0x7FE SWAP2 SWAP1 PUSH2 0x113F JUMP JUMPDEST PUSH1 0x40 MLOAD PUSH1 0x20 DUP2 DUP4 SUB SUB DUP2 MSTORE SWAP1 PUSH1 0x40 MSTORE SWAP1 PUSH28 0xFFFFFFFFFFFFFFFFFFFFFFFFFFFFFFFFFFFFFFFFFFFFFFFFFFFFFFFF NOT AND PUSH1 0x20 DUP3 ADD DUP1 MLOAD PUSH28 0xFFFFFFFFFFFFFFFFFFFFFFFFFFFFFFFFFFFFFFFFFFFFFFFFFFFFFFFF DUP4 DUP2 DUP4 AND OR DUP4 MSTORE POP POP POP POP SWAP1 POP PUSH1 0x0 DUP1 PUSH1 0x0 PUSH1 0x20 PUSH1 0x0 DUP6 MLOAD PUSH1 0x20 DUP8 ADD DUP11 PUSH2 0x7530 STATICCALL SWAP3 POP RETURNDATASIZE SWAP2 POP PUSH1 0x0 MLOAD SWAP1 POP DUP3 DUP1 ISZERO PUSH2 0x889 JUMPI POP PUSH1 0x20 DUP3 LT ISZERO JUMPDEST DUP1 ISZERO PUSH2 0x895 JUMPI POP PUSH1 0x0 DUP2 GT JUMPDEST SWAP5 POP POP POP POP POP SWAP3 SWAP2 POP POP JUMP JUMPDEST DUP1 DUP3 SSTORE POP POP JUMP JUMPDEST PUSH2 0x8E4 PUSH1 0x1 PUSH32 0x471011FB6F6F818490C7275A3F5781BD5EA022CB5A243DD8F2D009D0882C74A3 PUSH1 0x0 SHR PUSH2 0x8DB SWAP2 SWAP1 PUSH2 0xDD9 JUMP JUMPDEST PUSH1 0x0 SHL CALLER PUSH2 0x8A1 JUMP JUMPDEST PUSH2 0x921 PUSH1 0x1 PUSH32 0x649DD3ECD011E05F7B661F5786E7205A54D2201CB71EDE57000D4047776E2040 PUSH1 0x0 SHR PUSH2 0x917 SWAP2 SWAP1 PUSH2 0xDD9 JUMP JUMPDEST PUSH1 0x0 SHL PUSH1 0x2 PUSH2 0xA46 JUMP JUMPDEST PUSH2 0x95D PUSH1 0x1 PUSH32 0x249FE6EE22E6E15273C690C436E9CD06968FE8FB9E18A17365C2D2AA2ADD4E72 PUSH1 0x0 SHR PUSH2 0x954 SWAP2 SWAP1 PUSH2 0xDD9 JUMP JUMPDEST PUSH1 0x0 SHL DUP3 PUSH2 0xA46 JUMP JUMPDEST POP JUMP JUMPDEST PUSH1 0x60 PUSH2 0x985 DUP4 DUP4 PUSH1 0x40 MLOAD DUP1 PUSH1 0x60 ADD PUSH1 0x40 MSTORE DUP1 PUSH1 0x27 DUP2 MSTORE PUSH1 0x20 ADD PUSH2 0x12BB PUSH1 0x27 SWAP2 CODECOPY PUSH2 0xA4D JUMP JUMPDEST SWAP1 POP SWAP3 SWAP2 POP POP JUMP JUMPDEST PUSH2 0x9CA PUSH1 0x1 PUSH32 0x471011FB6F6F818490C7275A3F5781BD5EA022CB5A243DD8F2D009D0882C74A3 PUSH1 0x0 SHR PUSH2 0x9C0 SWAP2 SWAP1 PUSH2 0xDD9 JUMP JUMPDEST PUSH1 0x0 SHL PUSH1 0x1 PUSH2 0x8A1 JUMP JUMPDEST PUSH2 0xA07 PUSH1 0x1 PUSH32 0x649DD3ECD011E05F7B661F5786E7205A54D2201CB71EDE57000D4047776E2040 PUSH1 0x0 SHR PUSH2 0x9FD SWAP2 SWAP1 PUSH2 0xDD9 JUMP JUMPDEST PUSH1 0x0 SHL PUSH1 0x1 PUSH2 0xA46 JUMP JUMPDEST PUSH2 0xA44 PUSH1 0x1 PUSH32 0x249FE6EE22E6E15273C690C436E9CD06968FE8FB9E18A17365C2D2AA2ADD4E72 PUSH1 0x0 SHR PUSH2 0xA3A SWAP2 SWAP1 PUSH2 0xDD9 JUMP JUMPDEST PUSH1 0x0 SHL PUSH1 0x0 PUSH2 0xA46 JUMP JUMPDEST JUMP JUMPDEST DUP1 DUP3 SSTORE POP POP JUMP JUMPDEST PUSH1 0x60 PUSH1 0x0 DUP1 DUP6 PUSH20 0xFFFFFFFFFFFFFFFFFFFFFFFFFFFFFFFFFFFFFFFF AND DUP6 PUSH1 0x40 MLOAD PUSH2 0xA77 SWAP2 SWAP1 PUSH2 0x11C0 JUMP JUMPDEST PUSH1 0x0 PUSH1 0x40 MLOAD DUP1 DUP4 SUB DUP2 DUP6 GAS DELEGATECALL SWAP2 POP POP RETURNDATASIZE DUP1 PUSH1 0x0 DUP2 EQ PUSH2 0xAB2 JUMPI PUSH1 0x40 MLOAD SWAP2 POP PUSH1 0x1F NOT PUSH1 0x3F RETURNDATASIZE ADD AND DUP3 ADD PUSH1 0x40 MSTORE RETURNDATASIZE DUP3 MSTORE RETURNDATASIZE PUSH1 0x0 PUSH1 0x20 DUP5 ADD RETURNDATACOPY PUSH2 0xAB7 JUMP JUMPDEST PUSH1 0x60 SWAP2 POP JUMPDEST POP SWAP2 POP SWAP2 POP PUSH2 0xAC8 DUP7 DUP4 DUP4 DUP8 PUSH2 0xAD3 JUMP JUMPDEST SWAP3 POP POP POP SWAP4 SWAP3 POP POP POP JUMP JUMPDEST PUSH1 0x60 DUP4 ISZERO PUSH2 0xB35 JUMPI PUSH1 0x0 DUP4 MLOAD SUB PUSH2 0xB2D JUMPI PUSH2 0xAED DUP6 PUSH2 0xB48 JUMP JUMPDEST PUSH2 0xB2C JUMPI PUSH1 0x40 MLOAD PUSH32 0x8C379A000000000000000000000000000000000000000000000000000000000 DUP2 MSTORE PUSH1 0x4 ADD PUSH2 0xB23 SWAP1 PUSH2 0x1223 JUMP JUMPDEST PUSH1 0x40 MLOAD DUP1 SWAP2 SUB SWAP1 REVERT JUMPDEST JUMPDEST DUP3 SWAP1 POP PUSH2 0xB40 JUMP JUMPDEST PUSH2 0xB3F DUP4 DUP4 PUSH2 0xB6B JUMP JUMPDEST JUMPDEST SWAP5 SWAP4 POP POP POP POP JUMP JUMPDEST PUSH1 0x0 DUP1 DUP3 PUSH20 0xFFFFFFFFFFFFFFFFFFFFFFFFFFFFFFFFFFFFFFFF AND EXTCODESIZE GT SWAP1 POP SWAP2 SWAP1 POP JUMP JUMPDEST PUSH1 0x0 DUP3 MLOAD GT ISZERO PUSH2 0xB7E JUMPI DUP2 MLOAD DUP1 DUP4 PUSH1 0x20 ADD REVERT JUMPDEST DUP1 PUSH1 0x40 MLOAD PUSH32 0x8C379A000000000000000000000000000000000000000000000000000000000 DUP2 MSTORE PUSH1 0x4 ADD PUSH2 0xBB2 SWAP2 SWAP1 PUSH2 0x1298 JUMP JUMPDEST PUSH1 0x40 MLOAD DUP1 SWAP2 SUB SWAP1 REVERT JUMPDEST PUSH1 0x0 DUP1 REVERT JUMPDEST PUSH1 0x0 DUP1 REVERT JUMPDEST PUSH1 0x0 PUSH20 0xFFFFFFFFFFFFFFFFFFFFFFFFFFFFFFFFFFFFFFFF DUP3 AND SWAP1 POP SWAP2 SWAP1 POP JUMP JUMPDEST PUSH1 0x0 PUSH2 0xBF0 DUP3 PUSH2 0xBC5 JUMP JUMPDEST SWAP1 POP SWAP2 SWAP1 POP JUMP JUMPDEST PUSH2 0xC00 DUP2 PUSH2 0xBE5 JUMP JUMPDEST DUP2 EQ PUSH2 0xC0B JUMPI PUSH1 0x0 DUP1 REVERT JUMPDEST POP JUMP JUMPDEST PUSH1 0x0 DUP2 CALLDATALOAD SWAP1 POP PUSH2 0xC1D DUP2 PUSH2 0xBF7 JUMP JUMPDEST SWAP3 SWAP2 POP POP JUMP JUMPDEST PUSH1 0x0 PUSH1 0x20 DUP3 DUP5 SUB SLT ISZERO PUSH2 0xC39 JUMPI PUSH2 0xC38 PUSH2 0xBBB JUMP JUMPDEST JUMPDEST PUSH1 0x0 PUSH2 0xC47 DUP5 DUP3 DUP6 ADD PUSH2 0xC0E JUMP JUMPDEST SWAP2 POP POP SWAP3 SWAP2 POP POP JUMP JUMPDEST PUSH1 0x0 DUP2 SWAP1 POP SWAP2 SWAP1 POP JUMP JUMPDEST PUSH2 0xC63 DUP2 PUSH2 0xC50 JUMP JUMPDEST DUP2 EQ PUSH2 0xC6E JUMPI PUSH1 0x0 DUP1 REVERT JUMPDEST POP JUMP JUMPDEST PUSH1 0x0 DUP2 CALLDATALOAD SWAP1 POP PUSH2 0xC80 DUP2 PUSH2 0xC5A JUMP JUMPDEST SWAP3 SWAP2 POP POP JUMP JUMPDEST PUSH1 0x0 DUP1 REVERT JUMPDEST PUSH1 0x0 DUP1 REVERT JUMPDEST PUSH1 0x0 DUP1 REVERT JUMPDEST PUSH1 0x0 DUP1 DUP4 PUSH1 0x1F DUP5 ADD SLT PUSH2 0xCAB JUMPI PUSH2 0xCAA PUSH2 0xC86 JUMP JUMPDEST JUMPDEST DUP3 CALLDATALOAD SWAP1 POP PUSH8 0xFFFFFFFFFFFFFFFF DUP2 GT ISZERO PUSH2 0xCC8 JUMPI PUSH2 0xCC7 PUSH2 0xC8B JUMP JUMPDEST JUMPDEST PUSH1 0x20 DUP4 ADD SWAP2 POP DUP4 PUSH1 0x1 DUP3 MUL DUP4 ADD GT ISZERO PUSH2 0xCE4 JUMPI PUSH2 0xCE3 PUSH2 0xC90 JUMP JUMPDEST JUMPDEST SWAP3 POP SWAP3 SWAP1 POP JUMP JUMPDEST PUSH1 0x0 DUP1 PUSH1 0x0 DUP1 PUSH1 0x0 PUSH1 0x60 DUP7 DUP9 SUB SLT ISZERO PUSH2 0xD07 JUMPI PUSH2 0xD06 PUSH2 0xBBB JUMP JUMPDEST JUMPDEST PUSH1 0x0 PUSH2 0xD15 DUP9 DUP3 DUP10 ADD PUSH2 0xC71 JUMP JUMPDEST SWAP6 POP POP PUSH1 0x20 DUP7 ADD CALLDATALOAD PUSH8 0xFFFFFFFFFFFFFFFF DUP2 GT ISZERO PUSH2 0xD36 JUMPI PUSH2 0xD35 PUSH2 0xBC0 JUMP JUMPDEST JUMPDEST PUSH2 0xD42 DUP9 DUP3 DUP10 ADD PUSH2 0xC95 JUMP JUMPDEST SWAP5 POP SWAP5 POP POP PUSH1 0x40 DUP7 ADD CALLDATALOAD PUSH8 0xFFFFFFFFFFFFFFFF DUP2 GT ISZERO PUSH2 0xD65 JUMPI PUSH2 0xD64 PUSH2 0xBC0 JUMP JUMPDEST JUMPDEST PUSH2 0xD71 DUP9 DUP3 DUP10 ADD PUSH2 0xC95 JUMP JUMPDEST SWAP3 POP SWAP3 POP POP SWAP3 SWAP6 POP SWAP3 SWAP6 SWAP1 SWAP4 POP JUMP JUMPDEST PUSH2 0xD89 DUP2 PUSH2 0xBE5 JUMP JUMPDEST DUP3 MSTORE POP POP JUMP JUMPDEST PUSH1 0x0 PUSH1 0x20 DUP3 ADD SWAP1 POP PUSH2 0xDA4 PUSH1 0x0 DUP4 ADD DUP5 PUSH2 0xD80 JUMP JUMPDEST SWAP3 SWAP2 POP POP JUMP JUMPDEST PUSH32 0x4E487B7100000000000000000000000000000000000000000000000000000000 PUSH1 0x0 MSTORE PUSH1 0x11 PUSH1 0x4 MSTORE PUSH1 0x24 PUSH1 0x0 REVERT JUMPDEST PUSH1 0x0 PUSH2 0xDE4 DUP3 PUSH2 0xC50 JUMP JUMPDEST SWAP2 POP PUSH2 0xDEF DUP4 PUSH2 0xC50 JUMP JUMPDEST SWAP3 POP DUP3 DUP3 SUB SWAP1 POP DUP2 DUP2 GT ISZERO PUSH2 0xE07 JUMPI PUSH2 0xE06 PUSH2 0xDAA JUMP JUMPDEST JUMPDEST SWAP3 SWAP2 POP POP JUMP JUMPDEST PUSH1 0x0 DUP3 DUP3 MSTORE PUSH1 0x20 DUP3 ADD SWAP1 POP SWAP3 SWAP2 POP POP JUMP JUMPDEST PUSH32 0x4669726577616C6C436F6E73756D65723A206E6F74206669726577616C6C2061 PUSH1 0x0 DUP3 ADD MSTORE PUSH32 0x646D696E00000000000000000000000000000000000000000000000000000000 PUSH1 0x20 DUP3 ADD MSTORE POP JUMP JUMPDEST PUSH1 0x0 PUSH2 0xE7A PUSH1 0x24 DUP4 PUSH2 0xE0D JUMP JUMPDEST SWAP2 POP PUSH2 0xE85 DUP3 PUSH2 0xE1E JUMP JUMPDEST PUSH1 0x40 DUP3 ADD SWAP1 POP SWAP2 SWAP1 POP JUMP JUMPDEST PUSH1 0x0 PUSH1 0x20 DUP3 ADD SWAP1 POP DUP2 DUP2 SUB PUSH1 0x0 DUP4 ADD MSTORE PUSH2 0xEA9 DUP2 PUSH2 0xE6D JUMP JUMPDEST SWAP1 POP SWAP2 SWAP1 POP JUMP JUMPDEST PUSH32 0x4669726577616C6C436F6E73756D65723A207A65726F20616464726573730000 PUSH1 0x0 DUP3 ADD MSTORE POP JUMP JUMPDEST PUSH1 0x0 PUSH2 0xEE6 PUSH1 0x1E DUP4 PUSH2 0xE0D JUMP JUMPDEST SWAP2 POP PUSH2 0xEF1 DUP3 PUSH2 0xEB0 JUMP JUMPDEST PUSH1 0x20 DUP3 ADD SWAP1 POP SWAP2 SWAP1 POP JUMP JUMPDEST PUSH1 0x0 PUSH1 0x20 DUP3 ADD SWAP1 POP DUP2 DUP2 SUB PUSH1 0x0 DUP4 ADD MSTORE PUSH2 0xF15 DUP2 PUSH2 0xED9 JUMP JUMPDEST SWAP1 POP SWAP2 SWAP1 POP JUMP JUMPDEST PUSH32 0x4669726577616C6C436F6E73756D65723A206E6F74206E65772061646D696E00 PUSH1 0x0 DUP3 ADD MSTORE POP JUMP JUMPDEST PUSH1 0x0 PUSH2 0xF52 PUSH1 0x1F DUP4 PUSH2 0xE0D JUMP JUMPDEST SWAP2 POP PUSH2 0xF5D DUP3 PUSH2 0xF1C JUMP JUMPDEST PUSH1 0x20 DUP3 ADD SWAP1 POP SWAP2 SWAP1 POP JUMP JUMPDEST PUSH1 0x0 PUSH1 0x20 DUP3 ADD SWAP1 POP DUP2 DUP2 SUB PUSH1 0x0 DUP4 ADD MSTORE PUSH2 0xF81 DUP2 PUSH2 0xF45 JUMP JUMPDEST SWAP1 POP SWAP2 SWAP1 POP JUMP JUMPDEST PUSH32 0x56656E6E4669726577616C6C436F6E73756D65723A204E6F7420656E6F756768 PUSH1 0x0 DUP3 ADD MSTORE PUSH32 0x2045544820666F72206665650000000000000000000000000000000000000000 PUSH1 0x20 DUP3 ADD MSTORE POP JUMP JUMPDEST PUSH1 0x0 PUSH2 0xFE4 PUSH1 0x2C DUP4 PUSH2 0xE0D JUMP JUMPDEST SWAP2 POP PUSH2 0xFEF DUP3 PUSH2 0xF88 JUMP JUMPDEST PUSH1 0x40 DUP3 ADD SWAP1 POP SWAP2 SWAP1 POP JUMP JUMPDEST PUSH1 0x0 PUSH1 0x20 DUP3 ADD SWAP1 POP DUP2 DUP2 SUB PUSH1 0x0 DUP4 ADD MSTORE PUSH2 0x1013 DUP2 PUSH2 0xFD7 JUMP JUMPDEST SWAP1 POP SWAP2 SWAP1 POP JUMP JUMPDEST PUSH1 0x0 DUP2 SWAP1 POP SWAP3 SWAP2 POP POP JUMP JUMPDEST DUP3 DUP2 DUP4 CALLDATACOPY PUSH1 0x0 DUP4 DUP4 ADD MSTORE POP POP POP JUMP JUMPDEST PUSH1 0x0 PUSH2 0x1040 DUP4 DUP6 PUSH2 0x101A JUMP JUMPDEST SWAP4 POP PUSH2 0x104D DUP4 DUP6 DUP5 PUSH2 0x1025 JUMP JUMPDEST DUP3 DUP5 ADD SWAP1 POP SWAP4 SWAP3 POP POP POP JUMP JUMPDEST PUSH1 0x0 PUSH2 0x1066 DUP3 DUP5 DUP7 PUSH2 0x1034 JUMP JUMPDEST SWAP2 POP DUP2 SWAP1 POP SWAP4 SWAP3 POP POP POP JUMP JUMPDEST PUSH32 0x56656E6E4669726577616C6C436F6E73756D65723A2050726F78792063616C6C PUSH1 0x0 DUP3 ADD MSTORE PUSH32 0x206661696C656400000000000000000000000000000000000000000000000000 PUSH1 0x20 DUP3 ADD MSTORE POP JUMP JUMPDEST PUSH1 0x0 PUSH2 0x10CE PUSH1 0x27 DUP4 PUSH2 0xE0D JUMP JUMPDEST SWAP2 POP PUSH2 0x10D9 DUP3 PUSH2 0x1072 JUMP JUMPDEST PUSH1 0x40 DUP3 ADD SWAP1 POP SWAP2 SWAP1 POP JUMP JUMPDEST PUSH1 0x0 PUSH1 0x20 DUP3 ADD SWAP1 POP DUP2 DUP2 SUB PUSH1 0x0 DUP4 ADD MSTORE PUSH2 0x10FD DUP2 PUSH2 0x10C1 JUMP JUMPDEST SWAP1 POP SWAP2 SWAP1 POP JUMP JUMPDEST PUSH1 0x0 PUSH32 0xFFFFFFFF00000000000000000000000000000000000000000000000000000000 DUP3 AND SWAP1 POP SWAP2 SWAP1 POP JUMP JUMPDEST PUSH2 0x1139 DUP2 PUSH2 0x1104 JUMP JUMPDEST DUP3 MSTORE POP POP JUMP JUMPDEST PUSH1 0x0 PUSH1 0x20 DUP3 ADD SWAP1 POP PUSH2 0x1154 PUSH1 0x0 DUP4 ADD DUP5 PUSH2 0x1130 JUMP JUMPDEST SWAP3 SWAP2 POP POP JUMP JUMPDEST PUSH1 0x0 DUP2 MLOAD SWAP1 POP SWAP2 SWAP1 POP JUMP JUMPDEST PUSH1 0x0 JUMPDEST DUP4 DUP2 LT ISZERO PUSH2 0x1183 JUMPI DUP1 DUP3 ADD MLOAD DUP2 DUP5 ADD MSTORE PUSH1 0x20 DUP2 ADD SWAP1 POP PUSH2 0x1168 JUMP JUMPDEST PUSH1 0x0 DUP5 DUP5 ADD MSTORE POP POP POP POP JUMP JUMPDEST PUSH1 0x0 PUSH2 0x119A DUP3 PUSH2 0x115A JUMP JUMPDEST PUSH2 0x11A4 DUP2 DUP6 PUSH2 0x101A JUMP JUMPDEST SWAP4 POP PUSH2 0x11B4 DUP2 DUP6 PUSH1 0x20 DUP7 ADD PUSH2 0x1165 JUMP JUMPDEST DUP1 DUP5 ADD SWAP2 POP POP SWAP3 SWAP2 POP POP JUMP JUMPDEST PUSH1 0x0 PUSH2 0x11CC DUP3 DUP5 PUSH2 0x118F JUMP JUMPDEST SWAP2 POP DUP2 SWAP1 POP SWAP3 SWAP2 POP POP JUMP JUMPDEST PUSH32 0x416464726573733A2063616C6C20746F206E6F6E2D636F6E7472616374000000 PUSH1 0x0 DUP3 ADD MSTORE POP JUMP JUMPDEST PUSH1 0x0 PUSH2 0x120D PUSH1 0x1D DUP4 PUSH2 0xE0D JUMP JUMPDEST SWAP2 POP PUSH2 0x1218 DUP3 PUSH2 0x11D7 JUMP JUMPDEST PUSH1 0x20 DUP3 ADD SWAP1 POP SWAP2 SWAP1 POP JUMP JUMPDEST PUSH1 0x0 PUSH1 0x20 DUP3 ADD SWAP1 POP DUP2 DUP2 SUB PUSH1 0x0 DUP4 ADD MSTORE PUSH2 0x123C DUP2 PUSH2 0x1200 JUMP JUMPDEST SWAP1 POP SWAP2 SWAP1 POP JUMP JUMPDEST PUSH1 0x0 DUP2 MLOAD SWAP1 POP SWAP2 SWAP1 POP JUMP JUMPDEST PUSH1 0x0 PUSH1 0x1F NOT PUSH1 0x1F DUP4 ADD AND SWAP1 POP SWAP2 SWAP1 POP JUMP JUMPDEST PUSH1 0x0 PUSH2 0x126A DUP3 PUSH2 0x1243 JUMP JUMPDEST PUSH2 0x1274 DUP2 DUP6 PUSH2 0xE0D JUMP JUMPDEST SWAP4 POP PUSH2 0x1284 DUP2 DUP6 PUSH1 0x20 DUP7 ADD PUSH2 0x1165 JUMP JUMPDEST PUSH2 0x128D DUP2 PUSH2 0x124E JUMP JUMPDEST DUP5 ADD SWAP2 POP POP SWAP3 SWAP2 POP POP JUMP JUMPDEST PUSH1 0x0 PUSH1 0x20 DUP3 ADD SWAP1 POP DUP2 DUP2 SUB PUSH1 0x0 DUP4 ADD MSTORE PUSH2 0x12B2 DUP2 DUP5 PUSH2 0x125F JUMP JUMPDEST SWAP1 POP SWAP3 SWAP2 POP POP JUMP INVALID COINBASE PUSH5 0x6472657373 GASPRICE KECCAK256 PUSH13 0x6F772D6C6576656C2064656C65 PUSH8 0x6174652063616C6C KECCAK256 PUSH7 0x61696C6564A264 PUSH10 0x7066735822122015F159 MLOAD 0x21 0xCC 0xF7 0xE1 BASEFEE 0xC1 PUSH0 PUSH24 0xD33412E5F29D71D8FA227C4987471BD7B03FD47164736F6C PUSH4 0x43000817 STOP CALLER "},"methodIdentifiers":{"acceptFirewallAdmin()":"7c65c38b","firewallAdmin()":"f05c8582","safeFunctionCall(uint256,bytes,bytes)":"cb09f61f","setAttestationCenterProxy(address)":"54222e6c","setFirewall(address)":"8c36d02d","setFirewallAdmin(address)":"734b7198"}}}}}