{"contracts/srare.sol":{"Rare":{"abi":[{"anonymous":false,"inputs":[{"indexed":false,"internalType":"address","name":"newAdmin","type":"address"}],"name":"FirewallAdminUpdated","type":"event"},{"anonymous":false,"inputs":[{"indexed":false,"internalType":"address","name":"newFirewall","type":"address"}],"name":"FirewallUpdated","type":"event"},{"inputs":[],"name":"acceptFirewallAdmin","outputs":[],"stateMutability":"nonpayable","type":"function"},{"inputs":[],"name":"firewallAdmin","outputs":[{"internalType":"address","name":"","type":"address"}],"stateMutability":"view","type":"function"},{"inputs":[],"name":"myMethod","outputs":[],"stateMutability":"nonpayable","type":"function"},{"inputs":[{"internalType":"uint256","name":"userNativeFee","type":"uint256"},{"internalType":"bytes","name":"proxyPayload","type":"bytes"},{"internalType":"bytes","name":"data","type":"bytes"}],"name":"safeFunctionCall","outputs":[],"stateMutability":"payable","type":"function"},{"inputs":[{"internalType":"address","name":"attestationCenterProxy","type":"address"}],"name":"setAttestationCenterProxy","outputs":[],"stateMutability":"nonpayable","type":"function"},{"inputs":[{"internalType":"address","name":"_firewall","type":"address"}],"name":"setFirewall","outputs":[],"stateMutability":"nonpayable","type":"function"},{"inputs":[{"internalType":"address","name":"_firewallAdmin","type":"address"}],"name":"setFirewallAdmin","outputs":[],"stateMutability":"nonpayable","type":"function"},{"inputs":[],"name":"value","outputs":[{"internalType":"uint256","name":"","type":"uint256"}],"stateMutability":"view","type":"function"}],"evm":{"bytecode":{"linkReferences":{},"object":"60806040523480156200001157600080fd5b506000336200005b60017f5dd2e3b890564a8f99f7f203f226a27a8aa59aee19a4ece5cf5eaa77ab91f66260001c6200004b91906200017e565b60001b836200013760201b60201c565b620000a160017f29982a6ac507a2a707ced6dee5d76285dd49725db977de83d9702c628c97413660001c6200009191906200017e565b60001b826200013760201b60201c565b620000e860017f471011fb6f6f818490c7275a3f5781bd5ea022cb5a243dd8f2d009d0882c74a360001c620000d791906200017e565b60001b60016200013760201b60201c565b6200012f60017f649dd3ecd011e05f7b661f5786e7205a54d2201cb71ede57000d4047776e204060001c6200011e91906200017e565b60001b60016200013e60201b60201c565b5050620001b9565b8082555050565b8082555050565b6000819050919050565b7f4e487b7100000000000000000000000000000000000000000000000000000000600052601160045260246000fd5b60006200018b8262000145565b9150620001988362000145565b9250828203905081811115620001b357620001b26200014f565b5b92915050565b6116f080620001c96000396000f3fe60806040526004361061007b5760003560e01c80637c65c38b1161004e5780637c65c38b146101145780638c36d02d1461012b578063cb09f61f14610154578063f05c8582146101705761007b565b80633fa4f2451461008057806354222e6c146100ab57806370dce926146100d4578063734b7198146100eb575b600080fd5b34801561008c57600080fd5b5061009561019b565b6040516100a29190610f05565b60405180910390f35b3480156100b757600080fd5b506100d260048036038101906100cd9190610f88565b6101a1565b005b3480156100e057600080fd5b506100e96102d7565b005b3480156100f757600080fd5b50610112600480360381019061010d9190610f88565b61046d565b005b34801561012057600080fd5b506101296105c3565b005b34801561013757600080fd5b50610152600480360381019061014d9190610f88565b6106e0565b005b61016e60048036038101906101699190611046565b6107fe565b005b34801561017c57600080fd5b50610185610999565b60405161019291906110ea565b60405180910390f35b60005481565b6101dc60017f29982a6ac507a2a707ced6dee5d76285dd49725db977de83d9702c628c97413660001c6101d49190611134565b60001b6109db565b73ffffffffffffffffffffffffffffffffffffffff163373ffffffffffffffffffffffffffffffffffffffff1614610249576040517f08c379a0000000000000000000000000000000000000000000000000000000008152600401610240906111eb565b60405180910390fd5b600073ffffffffffffffffffffffffffffffffffffffff168173ffffffffffffffffffffffffffffffffffffffff16146102985761028e81630c908cff60e01b6109e6565b61029757600080fd5b5b6102d460017fbb5f5c81badac71dead5c1b29002ce6bbac893e2645c265b13d7499de81ab6e160001c6102cb9190611134565b60001b82610aa5565b50565b600061031460017f5dd2e3b890564a8f99f7f203f226a27a8aa59aee19a4ece5cf5eaa77ab91f66260001c61030c9190611134565b60001b6109db565b9050600073ffffffffffffffffffffffffffffffffffffffff168173ffffffffffffffffffffffffffffffffffffffff160361035857602a6000819055505061046b565b6000610362610aac565b90508173ffffffffffffffffffffffffffffffffffffffff16636fe1967c610388610bb9565b610390610bc1565b856040518563ffffffff1660e01b81526004016103b09493929190611269565b600060405180830381600087803b1580156103ca57600080fd5b505af11580156103de573d6000803e3d6000fd5b50505050602a6000819055508173ffffffffffffffffffffffffffffffffffffffff166393163a9161040e610bb9565b610416610bc1565b856040518563ffffffff1660e01b81526004016104369493929190611269565b600060405180830381600087803b15801561045057600080fd5b505af1158015610464573d6000803e3d6000fd5b5050505050505b565b6104a860017f29982a6ac507a2a707ced6dee5d76285dd49725db977de83d9702c628c97413660001c6104a09190611134565b60001b6109db565b73ffffffffffffffffffffffffffffffffffffffff163373ffffffffffffffffffffffffffffffffffffffff1614610515576040517f08c379a000000000000000000000000000000000000000000000000000000000815260040161050c906111eb565b60405180910390fd5b600073ffffffffffffffffffffffffffffffffffffffff168173ffffffffffffffffffffffffffffffffffffffff1603610584576040517f08c379a000000000000000000000000000000000000000000000000000000000815260040161057b906112f5565b60405180910390fd5b6105c060017f8583d637b7eb6415d11ef26648cf0702cf161a357dfe51b6ff7a332110d4bdd360001c6105b79190611134565b60001b82610aa5565b50565b6105fe60017f8583d637b7eb6415d11ef26648cf0702cf161a357dfe51b6ff7a332110d4bdd360001c6105f69190611134565b60001b6109db565b73ffffffffffffffffffffffffffffffffffffffff163373ffffffffffffffffffffffffffffffffffffffff161461066b576040517f08c379a000000000000000000000000000000000000000000000000000000000815260040161066290611361565b60405180910390fd5b6106a760017f29982a6ac507a2a707ced6dee5d76285dd49725db977de83d9702c628c97413660001c61069e9190611134565b60001b33610aa5565b7f2763a008a9a724a5da2f35346041f5c552001ab556d786252e1ff4ff798dfc1b336040516106d691906110ea565b60405180910390a1565b61071b60017f29982a6ac507a2a707ced6dee5d76285dd49725db977de83d9702c628c97413660001c6107139190611134565b60001b6109db565b73ffffffffffffffffffffffffffffffffffffffff163373ffffffffffffffffffffffffffffffffffffffff1614610788576040517f08c379a000000000000000000000000000000000000000000000000000000000815260040161077f906111eb565b60405180910390fd5b6107c460017f5dd2e3b890564a8f99f7f203f226a27a8aa59aee19a4ece5cf5eaa77ab91f66260001c6107bb9190611134565b60001b82610aa5565b7f60c1452966d777aab347837b9ceeaa613af32925b5aab43918e878fd03608670816040516107f391906110ea565b60405180910390a150565b84341015610841576040517f08c379a0000000000000000000000000000000000000000000000000000000008152600401610838906113f3565b60405180910390fd5b61084a85610bce565b600061088760017fbb5f5c81badac71dead5c1b29002ce6bbac893e2645c265b13d7499de81ab6e160001c61087f9190611134565b60001b6109db565b905060008173ffffffffffffffffffffffffffffffffffffffff168787876040516108b3929190611443565b60006040518083038185875af1925050503d80600081146108f0576040519150601f19603f3d011682016040523d82523d6000602084013e6108f5565b606091505b5050905080610939576040517f08c379a0000000000000000000000000000000000000000000000000000000008152600401610930906114ce565b60405180910390fd5b6109873085858080601f016020809104026020016040519081016040528093929190818152602001838380828437600081840152601f19601f82011690508083019250505050505050610c86565b50610990610cb3565b50505050505050565b60006109d660017f29982a6ac507a2a707ced6dee5d76285dd49725db977de83d9702c628c97413660001c6109ce9190611134565b60001b6109db565b905090565b600081549050919050565b6000806301ffc9a760e01b83604051602401610a029190611529565b604051602081830303815290604052907bffffffffffffffffffffffffffffffffffffffffffffffffffffffff19166020820180517bffffffffffffffffffffffffffffffffffffffffffffffffffffffff838183161783525050505090506000806000602060008551602087018a617530fa92503d91506000519050828015610a8d575060208210155b8015610a995750600081115b94505050505092915050565b8082555050565b60003490506002610aee60017f649dd3ecd011e05f7b661f5786e7205a54d2201cb71ede57000d4047776e204060001c610ae69190611134565b60001b610d6c565b60001c03610bb657610b3160017f471011fb6f6f818490c7275a3f5781bd5ea022cb5a243dd8f2d009d0882c74a360001c610b299190611134565b60001b6109db565b73ffffffffffffffffffffffffffffffffffffffff163373ffffffffffffffffffffffffffffffffffffffff1603610bb5576000610ba060017f249fe6ee22e6e15273c690c436e9cd06968fe8fb9e18a17365c2d2aa2add4e7260001c610b989190611134565b60001b610d6c565b60001c90508082610bb19190611134565b9150505b5b90565b600033905090565b3660008036915091509091565b610c0a60017f471011fb6f6f818490c7275a3f5781bd5ea022cb5a243dd8f2d009d0882c74a360001c610c019190611134565b60001b33610aa5565b610c4760017f649dd3ecd011e05f7b661f5786e7205a54d2201cb71ede57000d4047776e204060001c610c3d9190611134565b60001b6002610d77565b610c8360017f249fe6ee22e6e15273c690c436e9cd06968fe8fb9e18a17365c2d2aa2add4e7260001c610c7a9190611134565b60001b82610d77565b50565b6060610cab838360405180606001604052806027815260200161169460279139610d7e565b905092915050565b610cf060017f471011fb6f6f818490c7275a3f5781bd5ea022cb5a243dd8f2d009d0882c74a360001c610ce69190611134565b60001b6001610aa5565b610d2d60017f649dd3ecd011e05f7b661f5786e7205a54d2201cb71ede57000d4047776e204060001c610d239190611134565b60001b6001610d77565b610d6a60017f249fe6ee22e6e15273c690c436e9cd06968fe8fb9e18a17365c2d2aa2add4e7260001c610d609190611134565b60001b6000610d77565b565b600081549050919050565b8082555050565b60606000808573ffffffffffffffffffffffffffffffffffffffff1685604051610da891906115aa565b600060405180830381855af49150503d8060008114610de3576040519150601f19603f3d011682016040523d82523d6000602084013e610de8565b606091505b5091509150610df986838387610e04565b925050509392505050565b60608315610e66576000835103610e5e57610e1e85610e79565b610e5d576040517f08c379a0000000000000000000000000000000000000000000000000000000008152600401610e549061160d565b60405180910390fd5b5b829050610e71565b610e708383610e9c565b5b949350505050565b6000808273ffffffffffffffffffffffffffffffffffffffff163b119050919050565b600082511115610eaf5781518083602001fd5b806040517f08c379a0000000000000000000000000000000000000000000000000000000008152600401610ee39190611671565b60405180910390fd5b6000819050919050565b610eff81610eec565b82525050565b6000602082019050610f1a6000830184610ef6565b92915050565b600080fd5b600080fd5b600073ffffffffffffffffffffffffffffffffffffffff82169050919050565b6000610f5582610f2a565b9050919050565b610f6581610f4a565b8114610f7057600080fd5b50565b600081359050610f8281610f5c565b92915050565b600060208284031215610f9e57610f9d610f20565b5b6000610fac84828501610f73565b91505092915050565b610fbe81610eec565b8114610fc957600080fd5b50565b600081359050610fdb81610fb5565b92915050565b600080fd5b600080fd5b600080fd5b60008083601f84011261100657611005610fe1565b5b8235905067ffffffffffffffff81111561102357611022610fe6565b5b60208301915083600182028301111561103f5761103e610feb565b5b9250929050565b60008060008060006060868803121561106257611061610f20565b5b600061107088828901610fcc565b955050602086013567ffffffffffffffff81111561109157611090610f25565b5b61109d88828901610ff0565b9450945050604086013567ffffffffffffffff8111156110c0576110bf610f25565b5b6110cc88828901610ff0565b92509250509295509295909350565b6110e481610f4a565b82525050565b60006020820190506110ff60008301846110db565b92915050565b7f4e487b7100000000000000000000000000000000000000000000000000000000600052601160045260246000fd5b600061113f82610eec565b915061114a83610eec565b925082820390508181111561116257611161611105565b5b92915050565b600082825260208201905092915050565b7f4669726577616c6c436f6e73756d65723a206e6f74206669726577616c6c206160008201527f646d696e00000000000000000000000000000000000000000000000000000000602082015250565b60006111d5602483611168565b91506111e082611179565b604082019050919050565b60006020820190508181036000830152611204816111c8565b9050919050565b600082825260208201905092915050565b82818337600083830152505050565b6000601f19601f8301169050919050565b6000611248838561120b565b935061125583858461121c565b61125e8361122b565b840190509392505050565b600060608201905061127e60008301876110db565b818103602083015261129181858761123c565b90506112a06040830184610ef6565b95945050505050565b7f4669726577616c6c436f6e73756d65723a207a65726f20616464726573730000600082015250565b60006112df601e83611168565b91506112ea826112a9565b602082019050919050565b6000602082019050818103600083015261130e816112d2565b9050919050565b7f4669726577616c6c436f6e73756d65723a206e6f74206e65772061646d696e00600082015250565b600061134b601f83611168565b915061135682611315565b602082019050919050565b6000602082019050818103600083015261137a8161133e565b9050919050565b7f56656e6e4669726577616c6c436f6e73756d65723a204e6f7420656e6f75676860008201527f2045544820666f72206665650000000000000000000000000000000000000000602082015250565b60006113dd602c83611168565b91506113e882611381565b604082019050919050565b6000602082019050818103600083015261140c816113d0565b9050919050565b600081905092915050565b600061142a8385611413565b935061143783858461121c565b82840190509392505050565b600061145082848661141e565b91508190509392505050565b7f56656e6e4669726577616c6c436f6e73756d65723a2050726f78792063616c6c60008201527f206661696c656400000000000000000000000000000000000000000000000000602082015250565b60006114b8602783611168565b91506114c38261145c565b604082019050919050565b600060208201905081810360008301526114e7816114ab565b9050919050565b60007fffffffff0000000000000000000000000000000000000000000000000000000082169050919050565b611523816114ee565b82525050565b600060208201905061153e600083018461151a565b92915050565b600081519050919050565b60005b8381101561156d578082015181840152602081019050611552565b60008484015250505050565b600061158482611544565b61158e8185611413565b935061159e81856020860161154f565b80840191505092915050565b60006115b68284611579565b915081905092915050565b7f416464726573733a2063616c6c20746f206e6f6e2d636f6e7472616374000000600082015250565b60006115f7601d83611168565b9150611602826115c1565b602082019050919050565b60006020820190508181036000830152611626816115ea565b9050919050565b600081519050919050565b60006116438261162d565b61164d8185611168565b935061165d81856020860161154f565b6116668161122b565b840191505092915050565b6000602082019050818103600083015261168b8184611638565b90509291505056fe416464726573733a206c6f772d6c6576656c2064656c65676174652063616c6c206661696c6564a2646970667358221220c774265c526a076dc035fe5d4f499abc2681846f71ae3fd3acdc6252da7a4a2464736f6c63430008170033","opcodes":"PUSH1 0x80 PUSH1 0x40 MSTORE CALLVALUE DUP1 ISZERO PUSH3 0x11 JUMPI PUSH1 0x0 DUP1 REVERT JUMPDEST POP PUSH1 0x0 CALLER PUSH3 0x5B PUSH1 0x1 PUSH32 0x5DD2E3B890564A8F99F7F203F226A27A8AA59AEE19A4ECE5CF5EAA77AB91F662 PUSH1 0x0 SHR PUSH3 0x4B SWAP2 SWAP1 PUSH3 0x17E JUMP JUMPDEST PUSH1 0x0 SHL DUP4 PUSH3 0x137 PUSH1 0x20 SHL PUSH1 0x20 SHR JUMP JUMPDEST PUSH3 0xA1 PUSH1 0x1 PUSH32 0x29982A6AC507A2A707CED6DEE5D76285DD49725DB977DE83D9702C628C974136 PUSH1 0x0 SHR PUSH3 0x91 SWAP2 SWAP1 PUSH3 0x17E JUMP JUMPDEST PUSH1 0x0 SHL DUP3 PUSH3 0x137 PUSH1 0x20 SHL PUSH1 0x20 SHR JUMP JUMPDEST PUSH3 0xE8 PUSH1 0x1 PUSH32 0x471011FB6F6F818490C7275A3F5781BD5EA022CB5A243DD8F2D009D0882C74A3 PUSH1 0x0 SHR PUSH3 0xD7 SWAP2 SWAP1 PUSH3 0x17E JUMP JUMPDEST PUSH1 0x0 SHL PUSH1 0x1 PUSH3 0x137 PUSH1 0x20 SHL PUSH1 0x20 SHR JUMP JUMPDEST PUSH3 0x12F PUSH1 0x1 PUSH32 0x649DD3ECD011E05F7B661F5786E7205A54D2201CB71EDE57000D4047776E2040 PUSH1 0x0 SHR PUSH3 0x11E SWAP2 SWAP1 PUSH3 0x17E JUMP JUMPDEST PUSH1 0x0 SHL PUSH1 0x1 PUSH3 0x13E PUSH1 0x20 SHL PUSH1 0x20 SHR JUMP JUMPDEST POP POP PUSH3 0x1B9 JUMP JUMPDEST DUP1 DUP3 SSTORE POP POP JUMP JUMPDEST DUP1 DUP3 SSTORE POP POP JUMP JUMPDEST PUSH1 0x0 DUP2 SWAP1 POP SWAP2 SWAP1 POP JUMP JUMPDEST PUSH32 0x4E487B7100000000000000000000000000000000000000000000000000000000 PUSH1 0x0 MSTORE PUSH1 0x11 PUSH1 0x4 MSTORE PUSH1 0x24 PUSH1 0x0 REVERT JUMPDEST PUSH1 0x0 PUSH3 0x18B DUP3 PUSH3 0x145 JUMP JUMPDEST SWAP2 POP PUSH3 0x198 DUP4 PUSH3 0x145 JUMP JUMPDEST SWAP3 POP DUP3 DUP3 SUB SWAP1 POP DUP2 DUP2 GT ISZERO PUSH3 0x1B3 JUMPI PUSH3 0x1B2 PUSH3 0x14F JUMP JUMPDEST JUMPDEST SWAP3 SWAP2 POP POP JUMP JUMPDEST PUSH2 0x16F0 DUP1 PUSH3 0x1C9 PUSH1 0x0 CODECOPY PUSH1 0x0 RETURN INVALID PUSH1 0x80 PUSH1 0x40 MSTORE PUSH1 0x4 CALLDATASIZE LT PUSH2 0x7B JUMPI PUSH1 0x0 CALLDATALOAD PUSH1 0xE0 SHR DUP1 PUSH4 0x7C65C38B GT PUSH2 0x4E JUMPI DUP1 PUSH4 0x7C65C38B EQ PUSH2 0x114 JUMPI DUP1 PUSH4 0x8C36D02D EQ PUSH2 0x12B JUMPI DUP1 PUSH4 0xCB09F61F EQ PUSH2 0x154 JUMPI DUP1 PUSH4 0xF05C8582 EQ PUSH2 0x170 JUMPI PUSH2 0x7B JUMP JUMPDEST DUP1 PUSH4 0x3FA4F245 EQ PUSH2 0x80 JUMPI DUP1 PUSH4 0x54222E6C EQ PUSH2 0xAB JUMPI DUP1 PUSH4 0x70DCE926 EQ PUSH2 0xD4 JUMPI DUP1 PUSH4 0x734B7198 EQ PUSH2 0xEB JUMPI JUMPDEST PUSH1 0x0 DUP1 REVERT JUMPDEST CALLVALUE DUP1 ISZERO PUSH2 0x8C JUMPI PUSH1 0x0 DUP1 REVERT JUMPDEST POP PUSH2 0x95 PUSH2 0x19B JUMP JUMPDEST PUSH1 0x40 MLOAD PUSH2 0xA2 SWAP2 SWAP1 PUSH2 0xF05 JUMP JUMPDEST PUSH1 0x40 MLOAD DUP1 SWAP2 SUB SWAP1 RETURN JUMPDEST CALLVALUE DUP1 ISZERO PUSH2 0xB7 JUMPI PUSH1 0x0 DUP1 REVERT JUMPDEST POP PUSH2 0xD2 PUSH1 0x4 DUP1 CALLDATASIZE SUB DUP2 ADD SWAP1 PUSH2 0xCD SWAP2 SWAP1 PUSH2 0xF88 JUMP JUMPDEST PUSH2 0x1A1 JUMP JUMPDEST STOP JUMPDEST CALLVALUE DUP1 ISZERO PUSH2 0xE0 JUMPI PUSH1 0x0 DUP1 REVERT JUMPDEST POP PUSH2 0xE9 PUSH2 0x2D7 JUMP JUMPDEST STOP JUMPDEST CALLVALUE DUP1 ISZERO PUSH2 0xF7 JUMPI PUSH1 0x0 DUP1 REVERT JUMPDEST POP PUSH2 0x112 PUSH1 0x4 DUP1 CALLDATASIZE SUB DUP2 ADD SWAP1 PUSH2 0x10D SWAP2 SWAP1 PUSH2 0xF88 JUMP JUMPDEST PUSH2 0x46D JUMP JUMPDEST STOP JUMPDEST CALLVALUE DUP1 ISZERO PUSH2 0x120 JUMPI PUSH1 0x0 DUP1 REVERT JUMPDEST POP PUSH2 0x129 PUSH2 0x5C3 JUMP JUMPDEST STOP JUMPDEST CALLVALUE DUP1 ISZERO PUSH2 0x137 JUMPI PUSH1 0x0 DUP1 REVERT JUMPDEST POP PUSH2 0x152 PUSH1 0x4 DUP1 CALLDATASIZE SUB DUP2 ADD SWAP1 PUSH2 0x14D SWAP2 SWAP1 PUSH2 0xF88 JUMP JUMPDEST PUSH2 0x6E0 JUMP JUMPDEST STOP JUMPDEST PUSH2 0x16E PUSH1 0x4 DUP1 CALLDATASIZE SUB DUP2 ADD SWAP1 PUSH2 0x169 SWAP2 SWAP1 PUSH2 0x1046 JUMP JUMPDEST PUSH2 0x7FE JUMP JUMPDEST STOP JUMPDEST CALLVALUE DUP1 ISZERO PUSH2 0x17C JUMPI PUSH1 0x0 DUP1 REVERT JUMPDEST POP PUSH2 0x185 PUSH2 0x999 JUMP JUMPDEST PUSH1 0x40 MLOAD PUSH2 0x192 SWAP2 SWAP1 PUSH2 0x10EA JUMP JUMPDEST PUSH1 0x40 MLOAD DUP1 SWAP2 SUB SWAP1 RETURN JUMPDEST PUSH1 0x0 SLOAD DUP2 JUMP JUMPDEST PUSH2 0x1DC PUSH1 0x1 PUSH32 0x29982A6AC507A2A707CED6DEE5D76285DD49725DB977DE83D9702C628C974136 PUSH1 0x0 SHR PUSH2 0x1D4 SWAP2 SWAP1 PUSH2 0x1134 JUMP JUMPDEST PUSH1 0x0 SHL PUSH2 0x9DB JUMP JUMPDEST PUSH20 0xFFFFFFFFFFFFFFFFFFFFFFFFFFFFFFFFFFFFFFFF AND CALLER PUSH20 0xFFFFFFFFFFFFFFFFFFFFFFFFFFFFFFFFFFFFFFFF AND EQ PUSH2 0x249 JUMPI PUSH1 0x40 MLOAD PUSH32 0x8C379A000000000000000000000000000000000000000000000000000000000 DUP2 MSTORE PUSH1 0x4 ADD PUSH2 0x240 SWAP1 PUSH2 0x11EB JUMP JUMPDEST PUSH1 0x40 MLOAD DUP1 SWAP2 SUB SWAP1 REVERT JUMPDEST PUSH1 0x0 PUSH20 0xFFFFFFFFFFFFFFFFFFFFFFFFFFFFFFFFFFFFFFFF AND DUP2 PUSH20 0xFFFFFFFFFFFFFFFFFFFFFFFFFFFFFFFFFFFFFFFF AND EQ PUSH2 0x298 JUMPI PUSH2 0x28E DUP2 PUSH4 0xC908CFF PUSH1 0xE0 SHL PUSH2 0x9E6 JUMP JUMPDEST PUSH2 0x297 JUMPI PUSH1 0x0 DUP1 REVERT JUMPDEST JUMPDEST PUSH2 0x2D4 PUSH1 0x1 PUSH32 0xBB5F5C81BADAC71DEAD5C1B29002CE6BBAC893E2645C265B13D7499DE81AB6E1 PUSH1 0x0 SHR PUSH2 0x2CB SWAP2 SWAP1 PUSH2 0x1134 JUMP JUMPDEST PUSH1 0x0 SHL DUP3 PUSH2 0xAA5 JUMP JUMPDEST POP JUMP JUMPDEST PUSH1 0x0 PUSH2 0x314 PUSH1 0x1 PUSH32 0x5DD2E3B890564A8F99F7F203F226A27A8AA59AEE19A4ECE5CF5EAA77AB91F662 PUSH1 0x0 SHR PUSH2 0x30C SWAP2 SWAP1 PUSH2 0x1134 JUMP JUMPDEST PUSH1 0x0 SHL PUSH2 0x9DB JUMP JUMPDEST SWAP1 POP PUSH1 0x0 PUSH20 0xFFFFFFFFFFFFFFFFFFFFFFFFFFFFFFFFFFFFFFFF AND DUP2 PUSH20 0xFFFFFFFFFFFFFFFFFFFFFFFFFFFFFFFFFFFFFFFF AND SUB PUSH2 0x358 JUMPI PUSH1 0x2A PUSH1 0x0 DUP2 SWAP1 SSTORE POP POP PUSH2 0x46B JUMP JUMPDEST PUSH1 0x0 PUSH2 0x362 PUSH2 0xAAC JUMP JUMPDEST SWAP1 POP DUP2 PUSH20 0xFFFFFFFFFFFFFFFFFFFFFFFFFFFFFFFFFFFFFFFF AND PUSH4 0x6FE1967C PUSH2 0x388 PUSH2 0xBB9 JUMP JUMPDEST PUSH2 0x390 PUSH2 0xBC1 JUMP JUMPDEST DUP6 PUSH1 0x40 MLOAD DUP6 PUSH4 0xFFFFFFFF AND PUSH1 0xE0 SHL DUP2 MSTORE PUSH1 0x4 ADD PUSH2 0x3B0 SWAP5 SWAP4 SWAP3 SWAP2 SWAP1 PUSH2 0x1269 JUMP JUMPDEST PUSH1 0x0 PUSH1 0x40 MLOAD DUP1 DUP4 SUB DUP2 PUSH1 0x0 DUP8 DUP1 EXTCODESIZE ISZERO DUP1 ISZERO PUSH2 0x3CA JUMPI PUSH1 0x0 DUP1 REVERT JUMPDEST POP GAS CALL ISZERO DUP1 ISZERO PUSH2 0x3DE JUMPI RETURNDATASIZE PUSH1 0x0 DUP1 RETURNDATACOPY RETURNDATASIZE PUSH1 0x0 REVERT JUMPDEST POP POP POP POP PUSH1 0x2A PUSH1 0x0 DUP2 SWAP1 SSTORE POP DUP2 PUSH20 0xFFFFFFFFFFFFFFFFFFFFFFFFFFFFFFFFFFFFFFFF AND PUSH4 0x93163A91 PUSH2 0x40E PUSH2 0xBB9 JUMP JUMPDEST PUSH2 0x416 PUSH2 0xBC1 JUMP JUMPDEST DUP6 PUSH1 0x40 MLOAD DUP6 PUSH4 0xFFFFFFFF AND PUSH1 0xE0 SHL DUP2 MSTORE PUSH1 0x4 ADD PUSH2 0x436 SWAP5 SWAP4 SWAP3 SWAP2 SWAP1 PUSH2 0x1269 JUMP JUMPDEST PUSH1 0x0 PUSH1 0x40 MLOAD DUP1 DUP4 SUB DUP2 PUSH1 0x0 DUP8 DUP1 EXTCODESIZE ISZERO DUP1 ISZERO PUSH2 0x450 JUMPI PUSH1 0x0 DUP1 REVERT JUMPDEST POP GAS CALL ISZERO DUP1 ISZERO PUSH2 0x464 JUMPI RETURNDATASIZE PUSH1 0x0 DUP1 RETURNDATACOPY RETURNDATASIZE PUSH1 0x0 REVERT JUMPDEST POP POP POP POP POP POP JUMPDEST JUMP JUMPDEST PUSH2 0x4A8 PUSH1 0x1 PUSH32 0x29982A6AC507A2A707CED6DEE5D76285DD49725DB977DE83D9702C628C974136 PUSH1 0x0 SHR PUSH2 0x4A0 SWAP2 SWAP1 PUSH2 0x1134 JUMP JUMPDEST PUSH1 0x0 SHL PUSH2 0x9DB JUMP JUMPDEST PUSH20 0xFFFFFFFFFFFFFFFFFFFFFFFFFFFFFFFFFFFFFFFF AND CALLER PUSH20 0xFFFFFFFFFFFFFFFFFFFFFFFFFFFFFFFFFFFFFFFF AND EQ PUSH2 0x515 JUMPI PUSH1 0x40 MLOAD PUSH32 0x8C379A000000000000000000000000000000000000000000000000000000000 DUP2 MSTORE PUSH1 0x4 ADD PUSH2 0x50C SWAP1 PUSH2 0x11EB JUMP JUMPDEST PUSH1 0x40 MLOAD DUP1 SWAP2 SUB SWAP1 REVERT JUMPDEST PUSH1 0x0 PUSH20 0xFFFFFFFFFFFFFFFFFFFFFFFFFFFFFFFFFFFFFFFF AND DUP2 PUSH20 0xFFFFFFFFFFFFFFFFFFFFFFFFFFFFFFFFFFFFFFFF AND SUB PUSH2 0x584 JUMPI PUSH1 0x40 MLOAD PUSH32 0x8C379A000000000000000000000000000000000000000000000000000000000 DUP2 MSTORE PUSH1 0x4 ADD PUSH2 0x57B SWAP1 PUSH2 0x12F5 JUMP JUMPDEST PUSH1 0x40 MLOAD DUP1 SWAP2 SUB SWAP1 REVERT JUMPDEST PUSH2 0x5C0 PUSH1 0x1 PUSH32 0x8583D637B7EB6415D11EF26648CF0702CF161A357DFE51B6FF7A332110D4BDD3 PUSH1 0x0 SHR PUSH2 0x5B7 SWAP2 SWAP1 PUSH2 0x1134 JUMP JUMPDEST PUSH1 0x0 SHL DUP3 PUSH2 0xAA5 JUMP JUMPDEST POP JUMP JUMPDEST PUSH2 0x5FE PUSH1 0x1 PUSH32 0x8583D637B7EB6415D11EF26648CF0702CF161A357DFE51B6FF7A332110D4BDD3 PUSH1 0x0 SHR PUSH2 0x5F6 SWAP2 SWAP1 PUSH2 0x1134 JUMP JUMPDEST PUSH1 0x0 SHL PUSH2 0x9DB JUMP JUMPDEST PUSH20 0xFFFFFFFFFFFFFFFFFFFFFFFFFFFFFFFFFFFFFFFF AND CALLER PUSH20 0xFFFFFFFFFFFFFFFFFFFFFFFFFFFFFFFFFFFFFFFF AND EQ PUSH2 0x66B JUMPI PUSH1 0x40 MLOAD PUSH32 0x8C379A000000000000000000000000000000000000000000000000000000000 DUP2 MSTORE PUSH1 0x4 ADD PUSH2 0x662 SWAP1 PUSH2 0x1361 JUMP JUMPDEST PUSH1 0x40 MLOAD DUP1 SWAP2 SUB SWAP1 REVERT JUMPDEST PUSH2 0x6A7 PUSH1 0x1 PUSH32 0x29982A6AC507A2A707CED6DEE5D76285DD49725DB977DE83D9702C628C974136 PUSH1 0x0 SHR PUSH2 0x69E SWAP2 SWAP1 PUSH2 0x1134 JUMP JUMPDEST PUSH1 0x0 SHL CALLER PUSH2 0xAA5 JUMP JUMPDEST PUSH32 0x2763A008A9A724A5DA2F35346041F5C552001AB556D786252E1FF4FF798DFC1B CALLER PUSH1 0x40 MLOAD PUSH2 0x6D6 SWAP2 SWAP1 PUSH2 0x10EA JUMP JUMPDEST PUSH1 0x40 MLOAD DUP1 SWAP2 SUB SWAP1 LOG1 JUMP JUMPDEST PUSH2 0x71B PUSH1 0x1 PUSH32 0x29982A6AC507A2A707CED6DEE5D76285DD49725DB977DE83D9702C628C974136 PUSH1 0x0 SHR PUSH2 0x713 SWAP2 SWAP1 PUSH2 0x1134 JUMP JUMPDEST PUSH1 0x0 SHL PUSH2 0x9DB JUMP JUMPDEST PUSH20 0xFFFFFFFFFFFFFFFFFFFFFFFFFFFFFFFFFFFFFFFF AND CALLER PUSH20 0xFFFFFFFFFFFFFFFFFFFFFFFFFFFFFFFFFFFFFFFF AND EQ PUSH2 0x788 JUMPI PUSH1 0x40 MLOAD PUSH32 0x8C379A000000000000000000000000000000000000000000000000000000000 DUP2 MSTORE PUSH1 0x4 ADD PUSH2 0x77F SWAP1 PUSH2 0x11EB JUMP JUMPDEST PUSH1 0x40 MLOAD DUP1 SWAP2 SUB SWAP1 REVERT JUMPDEST PUSH2 0x7C4 PUSH1 0x1 PUSH32 0x5DD2E3B890564A8F99F7F203F226A27A8AA59AEE19A4ECE5CF5EAA77AB91F662 PUSH1 0x0 SHR PUSH2 0x7BB SWAP2 SWAP1 PUSH2 0x1134 JUMP JUMPDEST PUSH1 0x0 SHL DUP3 PUSH2 0xAA5 JUMP JUMPDEST PUSH32 0x60C1452966D777AAB347837B9CEEAA613AF32925B5AAB43918E878FD03608670 DUP2 PUSH1 0x40 MLOAD PUSH2 0x7F3 SWAP2 SWAP1 PUSH2 0x10EA JUMP JUMPDEST PUSH1 0x40 MLOAD DUP1 SWAP2 SUB SWAP1 LOG1 POP JUMP JUMPDEST DUP5 CALLVALUE LT ISZERO PUSH2 0x841 JUMPI PUSH1 0x40 MLOAD PUSH32 0x8C379A000000000000000000000000000000000000000000000000000000000 DUP2 MSTORE PUSH1 0x4 ADD PUSH2 0x838 SWAP1 PUSH2 0x13F3 JUMP JUMPDEST PUSH1 0x40 MLOAD DUP1 SWAP2 SUB SWAP1 REVERT JUMPDEST PUSH2 0x84A DUP6 PUSH2 0xBCE JUMP JUMPDEST PUSH1 0x0 PUSH2 0x887 PUSH1 0x1 PUSH32 0xBB5F5C81BADAC71DEAD5C1B29002CE6BBAC893E2645C265B13D7499DE81AB6E1 PUSH1 0x0 SHR PUSH2 0x87F SWAP2 SWAP1 PUSH2 0x1134 JUMP JUMPDEST PUSH1 0x0 SHL PUSH2 0x9DB JUMP JUMPDEST SWAP1 POP PUSH1 0x0 DUP2 PUSH20 0xFFFFFFFFFFFFFFFFFFFFFFFFFFFFFFFFFFFFFFFF AND DUP8 DUP8 DUP8 PUSH1 0x40 MLOAD PUSH2 0x8B3 SWAP3 SWAP2 SWAP1 PUSH2 0x1443 JUMP JUMPDEST PUSH1 0x0 PUSH1 0x40 MLOAD DUP1 DUP4 SUB DUP2 DUP6 DUP8 GAS CALL SWAP3 POP POP POP RETURNDATASIZE DUP1 PUSH1 0x0 DUP2 EQ PUSH2 0x8F0 JUMPI PUSH1 0x40 MLOAD SWAP2 POP PUSH1 0x1F NOT PUSH1 0x3F RETURNDATASIZE ADD AND DUP3 ADD PUSH1 0x40 MSTORE RETURNDATASIZE DUP3 MSTORE RETURNDATASIZE PUSH1 0x0 PUSH1 0x20 DUP5 ADD RETURNDATACOPY PUSH2 0x8F5 JUMP JUMPDEST PUSH1 0x60 SWAP2 POP JUMPDEST POP POP SWAP1 POP DUP1 PUSH2 0x939 JUMPI PUSH1 0x40 MLOAD PUSH32 0x8C379A000000000000000000000000000000000000000000000000000000000 DUP2 MSTORE PUSH1 0x4 ADD PUSH2 0x930 SWAP1 PUSH2 0x14CE JUMP JUMPDEST PUSH1 0x40 MLOAD DUP1 SWAP2 SUB SWAP1 REVERT JUMPDEST PUSH2 0x987 ADDRESS DUP6 DUP6 DUP1 DUP1 PUSH1 0x1F ADD PUSH1 0x20 DUP1 SWAP2 DIV MUL PUSH1 0x20 ADD PUSH1 0x40 MLOAD SWAP1 DUP2 ADD PUSH1 0x40 MSTORE DUP1 SWAP4 SWAP3 SWAP2 SWAP1 DUP2 DUP2 MSTORE PUSH1 0x20 ADD DUP4 DUP4 DUP1 DUP3 DUP5 CALLDATACOPY PUSH1 0x0 DUP2 DUP5 ADD MSTORE PUSH1 0x1F NOT PUSH1 0x1F DUP3 ADD AND SWAP1 POP DUP1 DUP4 ADD SWAP3 POP POP POP POP POP POP POP PUSH2 0xC86 JUMP JUMPDEST POP PUSH2 0x990 PUSH2 0xCB3 JUMP JUMPDEST POP POP POP POP POP POP POP JUMP JUMPDEST PUSH1 0x0 PUSH2 0x9D6 PUSH1 0x1 PUSH32 0x29982A6AC507A2A707CED6DEE5D76285DD49725DB977DE83D9702C628C974136 PUSH1 0x0 SHR PUSH2 0x9CE SWAP2 SWAP1 PUSH2 0x1134 JUMP JUMPDEST PUSH1 0x0 SHL PUSH2 0x9DB JUMP JUMPDEST SWAP1 POP SWAP1 JUMP JUMPDEST PUSH1 0x0 DUP2 SLOAD SWAP1 POP SWAP2 SWAP1 POP JUMP JUMPDEST PUSH1 0x0 DUP1 PUSH4 0x1FFC9A7 PUSH1 0xE0 SHL DUP4 PUSH1 0x40 MLOAD PUSH1 0x24 ADD PUSH2 0xA02 SWAP2 SWAP1 PUSH2 0x1529 JUMP JUMPDEST PUSH1 0x40 MLOAD PUSH1 0x20 DUP2 DUP4 SUB SUB DUP2 MSTORE SWAP1 PUSH1 0x40 MSTORE SWAP1 PUSH28 0xFFFFFFFFFFFFFFFFFFFFFFFFFFFFFFFFFFFFFFFFFFFFFFFFFFFFFFFF NOT AND PUSH1 0x20 DUP3 ADD DUP1 MLOAD PUSH28 0xFFFFFFFFFFFFFFFFFFFFFFFFFFFFFFFFFFFFFFFFFFFFFFFFFFFFFFFF DUP4 DUP2 DUP4 AND OR DUP4 MSTORE POP POP POP POP SWAP1 POP PUSH1 0x0 DUP1 PUSH1 0x0 PUSH1 0x20 PUSH1 0x0 DUP6 MLOAD PUSH1 0x20 DUP8 ADD DUP11 PUSH2 0x7530 STATICCALL SWAP3 POP RETURNDATASIZE SWAP2 POP PUSH1 0x0 MLOAD SWAP1 POP DUP3 DUP1 ISZERO PUSH2 0xA8D JUMPI POP PUSH1 0x20 DUP3 LT ISZERO JUMPDEST DUP1 ISZERO PUSH2 0xA99 JUMPI POP PUSH1 0x0 DUP2 GT JUMPDEST SWAP5 POP POP POP POP POP SWAP3 SWAP2 POP POP JUMP JUMPDEST DUP1 DUP3 SSTORE POP POP JUMP JUMPDEST PUSH1 0x0 CALLVALUE SWAP1 POP PUSH1 0x2 PUSH2 0xAEE PUSH1 0x1 PUSH32 0x649DD3ECD011E05F7B661F5786E7205A54D2201CB71EDE57000D4047776E2040 PUSH1 0x0 SHR PUSH2 0xAE6 SWAP2 SWAP1 PUSH2 0x1134 JUMP JUMPDEST PUSH1 0x0 SHL PUSH2 0xD6C JUMP JUMPDEST PUSH1 0x0 SHR SUB PUSH2 0xBB6 JUMPI PUSH2 0xB31 PUSH1 0x1 PUSH32 0x471011FB6F6F818490C7275A3F5781BD5EA022CB5A243DD8F2D009D0882C74A3 PUSH1 0x0 SHR PUSH2 0xB29 SWAP2 SWAP1 PUSH2 0x1134 JUMP JUMPDEST PUSH1 0x0 SHL PUSH2 0x9DB JUMP JUMPDEST PUSH20 0xFFFFFFFFFFFFFFFFFFFFFFFFFFFFFFFFFFFFFFFF AND CALLER PUSH20 0xFFFFFFFFFFFFFFFFFFFFFFFFFFFFFFFFFFFFFFFF AND SUB PUSH2 0xBB5 JUMPI PUSH1 0x0 PUSH2 0xBA0 PUSH1 0x1 PUSH32 0x249FE6EE22E6E15273C690C436E9CD06968FE8FB9E18A17365C2D2AA2ADD4E72 PUSH1 0x0 SHR PUSH2 0xB98 SWAP2 SWAP1 PUSH2 0x1134 JUMP JUMPDEST PUSH1 0x0 SHL PUSH2 0xD6C JUMP JUMPDEST PUSH1 0x0 SHR SWAP1 POP DUP1 DUP3 PUSH2 0xBB1 SWAP2 SWAP1 PUSH2 0x1134 JUMP JUMPDEST SWAP2 POP POP JUMPDEST JUMPDEST SWAP1 JUMP JUMPDEST PUSH1 0x0 CALLER SWAP1 POP SWAP1 JUMP JUMPDEST CALLDATASIZE PUSH1 0x0 DUP1 CALLDATASIZE SWAP2 POP SWAP2 POP SWAP1 SWAP2 JUMP JUMPDEST PUSH2 0xC0A PUSH1 0x1 PUSH32 0x471011FB6F6F818490C7275A3F5781BD5EA022CB5A243DD8F2D009D0882C74A3 PUSH1 0x0 SHR PUSH2 0xC01 SWAP2 SWAP1 PUSH2 0x1134 JUMP JUMPDEST PUSH1 0x0 SHL CALLER PUSH2 0xAA5 JUMP JUMPDEST PUSH2 0xC47 PUSH1 0x1 PUSH32 0x649DD3ECD011E05F7B661F5786E7205A54D2201CB71EDE57000D4047776E2040 PUSH1 0x0 SHR PUSH2 0xC3D SWAP2 SWAP1 PUSH2 0x1134 JUMP JUMPDEST PUSH1 0x0 SHL PUSH1 0x2 PUSH2 0xD77 JUMP JUMPDEST PUSH2 0xC83 PUSH1 0x1 PUSH32 0x249FE6EE22E6E15273C690C436E9CD06968FE8FB9E18A17365C2D2AA2ADD4E72 PUSH1 0x0 SHR PUSH2 0xC7A SWAP2 SWAP1 PUSH2 0x1134 JUMP JUMPDEST PUSH1 0x0 SHL DUP3 PUSH2 0xD77 JUMP JUMPDEST POP JUMP JUMPDEST PUSH1 0x60 PUSH2 0xCAB DUP4 DUP4 PUSH1 0x40 MLOAD DUP1 PUSH1 0x60 ADD PUSH1 0x40 MSTORE DUP1 PUSH1 0x27 DUP2 MSTORE PUSH1 0x20 ADD PUSH2 0x1694 PUSH1 0x27 SWAP2 CODECOPY PUSH2 0xD7E JUMP JUMPDEST SWAP1 POP SWAP3 SWAP2 POP POP JUMP JUMPDEST PUSH2 0xCF0 PUSH1 0x1 PUSH32 0x471011FB6F6F818490C7275A3F5781BD5EA022CB5A243DD8F2D009D0882C74A3 PUSH1 0x0 SHR PUSH2 0xCE6 SWAP2 SWAP1 PUSH2 0x1134 JUMP JUMPDEST PUSH1 0x0 SHL PUSH1 0x1 PUSH2 0xAA5 JUMP JUMPDEST PUSH2 0xD2D PUSH1 0x1 PUSH32 0x649DD3ECD011E05F7B661F5786E7205A54D2201CB71EDE57000D4047776E2040 PUSH1 0x0 SHR PUSH2 0xD23 SWAP2 SWAP1 PUSH2 0x1134 JUMP JUMPDEST PUSH1 0x0 SHL PUSH1 0x1 PUSH2 0xD77 JUMP JUMPDEST PUSH2 0xD6A PUSH1 0x1 PUSH32 0x249FE6EE22E6E15273C690C436E9CD06968FE8FB9E18A17365C2D2AA2ADD4E72 PUSH1 0x0 SHR PUSH2 0xD60 SWAP2 SWAP1 PUSH2 0x1134 JUMP JUMPDEST PUSH1 0x0 SHL PUSH1 0x0 PUSH2 0xD77 JUMP JUMPDEST JUMP JUMPDEST PUSH1 0x0 DUP2 SLOAD SWAP1 POP SWAP2 SWAP1 POP JUMP JUMPDEST DUP1 DUP3 SSTORE POP POP JUMP JUMPDEST PUSH1 0x60 PUSH1 0x0 DUP1 DUP6 PUSH20 0xFFFFFFFFFFFFFFFFFFFFFFFFFFFFFFFFFFFFFFFF AND DUP6 PUSH1 0x40 MLOAD PUSH2 0xDA8 SWAP2 SWAP1 PUSH2 0x15AA JUMP JUMPDEST PUSH1 0x0 PUSH1 0x40 MLOAD DUP1 DUP4 SUB DUP2 DUP6 GAS DELEGATECALL SWAP2 POP POP RETURNDATASIZE DUP1 PUSH1 0x0 DUP2 EQ PUSH2 0xDE3 JUMPI PUSH1 0x40 MLOAD SWAP2 POP PUSH1 0x1F NOT PUSH1 0x3F RETURNDATASIZE ADD AND DUP3 ADD PUSH1 0x40 MSTORE RETURNDATASIZE DUP3 MSTORE RETURNDATASIZE PUSH1 0x0 PUSH1 0x20 DUP5 ADD RETURNDATACOPY PUSH2 0xDE8 JUMP JUMPDEST PUSH1 0x60 SWAP2 POP JUMPDEST POP SWAP2 POP SWAP2 POP PUSH2 0xDF9 DUP7 DUP4 DUP4 DUP8 PUSH2 0xE04 JUMP JUMPDEST SWAP3 POP POP POP SWAP4 SWAP3 POP POP POP JUMP JUMPDEST PUSH1 0x60 DUP4 ISZERO PUSH2 0xE66 JUMPI PUSH1 0x0 DUP4 MLOAD SUB PUSH2 0xE5E JUMPI PUSH2 0xE1E DUP6 PUSH2 0xE79 JUMP JUMPDEST PUSH2 0xE5D JUMPI PUSH1 0x40 MLOAD PUSH32 0x8C379A000000000000000000000000000000000000000000000000000000000 DUP2 MSTORE PUSH1 0x4 ADD PUSH2 0xE54 SWAP1 PUSH2 0x160D JUMP JUMPDEST PUSH1 0x40 MLOAD DUP1 SWAP2 SUB SWAP1 REVERT JUMPDEST JUMPDEST DUP3 SWAP1 POP PUSH2 0xE71 JUMP JUMPDEST PUSH2 0xE70 DUP4 DUP4 PUSH2 0xE9C JUMP JUMPDEST JUMPDEST SWAP5 SWAP4 POP POP POP POP JUMP JUMPDEST PUSH1 0x0 DUP1 DUP3 PUSH20 0xFFFFFFFFFFFFFFFFFFFFFFFFFFFFFFFFFFFFFFFF AND EXTCODESIZE GT SWAP1 POP SWAP2 SWAP1 POP JUMP JUMPDEST PUSH1 0x0 DUP3 MLOAD GT ISZERO PUSH2 0xEAF JUMPI DUP2 MLOAD DUP1 DUP4 PUSH1 0x20 ADD REVERT JUMPDEST DUP1 PUSH1 0x40 MLOAD PUSH32 0x8C379A000000000000000000000000000000000000000000000000000000000 DUP2 MSTORE PUSH1 0x4 ADD PUSH2 0xEE3 SWAP2 SWAP1 PUSH2 0x1671 JUMP JUMPDEST PUSH1 0x40 MLOAD DUP1 SWAP2 SUB SWAP1 REVERT JUMPDEST PUSH1 0x0 DUP2 SWAP1 POP SWAP2 SWAP1 POP JUMP JUMPDEST PUSH2 0xEFF DUP2 PUSH2 0xEEC JUMP JUMPDEST DUP3 MSTORE POP POP JUMP JUMPDEST PUSH1 0x0 PUSH1 0x20 DUP3 ADD SWAP1 POP PUSH2 0xF1A PUSH1 0x0 DUP4 ADD DUP5 PUSH2 0xEF6 JUMP JUMPDEST SWAP3 SWAP2 POP POP JUMP JUMPDEST PUSH1 0x0 DUP1 REVERT JUMPDEST PUSH1 0x0 DUP1 REVERT JUMPDEST PUSH1 0x0 PUSH20 0xFFFFFFFFFFFFFFFFFFFFFFFFFFFFFFFFFFFFFFFF DUP3 AND SWAP1 POP SWAP2 SWAP1 POP JUMP JUMPDEST PUSH1 0x0 PUSH2 0xF55 DUP3 PUSH2 0xF2A JUMP JUMPDEST SWAP1 POP SWAP2 SWAP1 POP JUMP JUMPDEST PUSH2 0xF65 DUP2 PUSH2 0xF4A JUMP JUMPDEST DUP2 EQ PUSH2 0xF70 JUMPI PUSH1 0x0 DUP1 REVERT JUMPDEST POP JUMP JUMPDEST PUSH1 0x0 DUP2 CALLDATALOAD SWAP1 POP PUSH2 0xF82 DUP2 PUSH2 0xF5C JUMP JUMPDEST SWAP3 SWAP2 POP POP JUMP JUMPDEST PUSH1 0x0 PUSH1 0x20 DUP3 DUP5 SUB SLT ISZERO PUSH2 0xF9E JUMPI PUSH2 0xF9D PUSH2 0xF20 JUMP JUMPDEST JUMPDEST PUSH1 0x0 PUSH2 0xFAC DUP5 DUP3 DUP6 ADD PUSH2 0xF73 JUMP JUMPDEST SWAP2 POP POP SWAP3 SWAP2 POP POP JUMP JUMPDEST PUSH2 0xFBE DUP2 PUSH2 0xEEC JUMP JUMPDEST DUP2 EQ PUSH2 0xFC9 JUMPI PUSH1 0x0 DUP1 REVERT JUMPDEST POP JUMP JUMPDEST PUSH1 0x0 DUP2 CALLDATALOAD SWAP1 POP PUSH2 0xFDB DUP2 PUSH2 0xFB5 JUMP JUMPDEST SWAP3 SWAP2 POP POP JUMP JUMPDEST PUSH1 0x0 DUP1 REVERT JUMPDEST PUSH1 0x0 DUP1 REVERT JUMPDEST PUSH1 0x0 DUP1 REVERT JUMPDEST PUSH1 0x0 DUP1 DUP4 PUSH1 0x1F DUP5 ADD SLT PUSH2 0x1006 JUMPI PUSH2 0x1005 PUSH2 0xFE1 JUMP JUMPDEST JUMPDEST DUP3 CALLDATALOAD SWAP1 POP PUSH8 0xFFFFFFFFFFFFFFFF DUP2 GT ISZERO PUSH2 0x1023 JUMPI PUSH2 0x1022 PUSH2 0xFE6 JUMP JUMPDEST JUMPDEST PUSH1 0x20 DUP4 ADD SWAP2 POP DUP4 PUSH1 0x1 DUP3 MUL DUP4 ADD GT ISZERO PUSH2 0x103F JUMPI PUSH2 0x103E PUSH2 0xFEB JUMP JUMPDEST JUMPDEST SWAP3 POP SWAP3 SWAP1 POP JUMP JUMPDEST PUSH1 0x0 DUP1 PUSH1 0x0 DUP1 PUSH1 0x0 PUSH1 0x60 DUP7 DUP9 SUB SLT ISZERO PUSH2 0x1062 JUMPI PUSH2 0x1061 PUSH2 0xF20 JUMP JUMPDEST JUMPDEST PUSH1 0x0 PUSH2 0x1070 DUP9 DUP3 DUP10 ADD PUSH2 0xFCC JUMP JUMPDEST SWAP6 POP POP PUSH1 0x20 DUP7 ADD CALLDATALOAD PUSH8 0xFFFFFFFFFFFFFFFF DUP2 GT ISZERO PUSH2 0x1091 JUMPI PUSH2 0x1090 PUSH2 0xF25 JUMP JUMPDEST JUMPDEST PUSH2 0x109D DUP9 DUP3 DUP10 ADD PUSH2 0xFF0 JUMP JUMPDEST SWAP5 POP SWAP5 POP POP PUSH1 0x40 DUP7 ADD CALLDATALOAD PUSH8 0xFFFFFFFFFFFFFFFF DUP2 GT ISZERO PUSH2 0x10C0 JUMPI PUSH2 0x10BF PUSH2 0xF25 JUMP JUMPDEST JUMPDEST PUSH2 0x10CC DUP9 DUP3 DUP10 ADD PUSH2 0xFF0 JUMP JUMPDEST SWAP3 POP SWAP3 POP POP SWAP3 SWAP6 POP SWAP3 SWAP6 SWAP1 SWAP4 POP JUMP JUMPDEST PUSH2 0x10E4 DUP2 PUSH2 0xF4A JUMP JUMPDEST DUP3 MSTORE POP POP JUMP JUMPDEST PUSH1 0x0 PUSH1 0x20 DUP3 ADD SWAP1 POP PUSH2 0x10FF PUSH1 0x0 DUP4 ADD DUP5 PUSH2 0x10DB JUMP JUMPDEST SWAP3 SWAP2 POP POP JUMP JUMPDEST PUSH32 0x4E487B7100000000000000000000000000000000000000000000000000000000 PUSH1 0x0 MSTORE PUSH1 0x11 PUSH1 0x4 MSTORE PUSH1 0x24 PUSH1 0x0 REVERT JUMPDEST PUSH1 0x0 PUSH2 0x113F DUP3 PUSH2 0xEEC JUMP JUMPDEST SWAP2 POP PUSH2 0x114A DUP4 PUSH2 0xEEC JUMP JUMPDEST SWAP3 POP DUP3 DUP3 SUB SWAP1 POP DUP2 DUP2 GT ISZERO PUSH2 0x1162 JUMPI PUSH2 0x1161 PUSH2 0x1105 JUMP JUMPDEST JUMPDEST SWAP3 SWAP2 POP POP JUMP JUMPDEST PUSH1 0x0 DUP3 DUP3 MSTORE PUSH1 0x20 DUP3 ADD SWAP1 POP SWAP3 SWAP2 POP POP JUMP JUMPDEST PUSH32 0x4669726577616C6C436F6E73756D65723A206E6F74206669726577616C6C2061 PUSH1 0x0 DUP3 ADD MSTORE PUSH32 0x646D696E00000000000000000000000000000000000000000000000000000000 PUSH1 0x20 DUP3 ADD MSTORE POP JUMP JUMPDEST PUSH1 0x0 PUSH2 0x11D5 PUSH1 0x24 DUP4 PUSH2 0x1168 JUMP JUMPDEST SWAP2 POP PUSH2 0x11E0 DUP3 PUSH2 0x1179 JUMP JUMPDEST PUSH1 0x40 DUP3 ADD SWAP1 POP SWAP2 SWAP1 POP JUMP JUMPDEST PUSH1 0x0 PUSH1 0x20 DUP3 ADD SWAP1 POP DUP2 DUP2 SUB PUSH1 0x0 DUP4 ADD MSTORE PUSH2 0x1204 DUP2 PUSH2 0x11C8 JUMP JUMPDEST SWAP1 POP SWAP2 SWAP1 POP JUMP JUMPDEST PUSH1 0x0 DUP3 DUP3 MSTORE PUSH1 0x20 DUP3 ADD SWAP1 POP SWAP3 SWAP2 POP POP JUMP JUMPDEST DUP3 DUP2 DUP4 CALLDATACOPY PUSH1 0x0 DUP4 DUP4 ADD MSTORE POP POP POP JUMP JUMPDEST PUSH1 0x0 PUSH1 0x1F NOT PUSH1 0x1F DUP4 ADD AND SWAP1 POP SWAP2 SWAP1 POP JUMP JUMPDEST PUSH1 0x0 PUSH2 0x1248 DUP4 DUP6 PUSH2 0x120B JUMP JUMPDEST SWAP4 POP PUSH2 0x1255 DUP4 DUP6 DUP5 PUSH2 0x121C JUMP JUMPDEST PUSH2 0x125E DUP4 PUSH2 0x122B JUMP JUMPDEST DUP5 ADD SWAP1 POP SWAP4 SWAP3 POP POP POP JUMP JUMPDEST PUSH1 0x0 PUSH1 0x60 DUP3 ADD SWAP1 POP PUSH2 0x127E PUSH1 0x0 DUP4 ADD DUP8 PUSH2 0x10DB JUMP JUMPDEST DUP2 DUP2 SUB PUSH1 0x20 DUP4 ADD MSTORE PUSH2 0x1291 DUP2 DUP6 DUP8 PUSH2 0x123C JUMP JUMPDEST SWAP1 POP PUSH2 0x12A0 PUSH1 0x40 DUP4 ADD DUP5 PUSH2 0xEF6 JUMP JUMPDEST SWAP6 SWAP5 POP POP POP POP POP JUMP JUMPDEST PUSH32 0x4669726577616C6C436F6E73756D65723A207A65726F20616464726573730000 PUSH1 0x0 DUP3 ADD MSTORE POP JUMP JUMPDEST PUSH1 0x0 PUSH2 0x12DF PUSH1 0x1E DUP4 PUSH2 0x1168 JUMP JUMPDEST SWAP2 POP PUSH2 0x12EA DUP3 PUSH2 0x12A9 JUMP JUMPDEST PUSH1 0x20 DUP3 ADD SWAP1 POP SWAP2 SWAP1 POP JUMP JUMPDEST PUSH1 0x0 PUSH1 0x20 DUP3 ADD SWAP1 POP DUP2 DUP2 SUB PUSH1 0x0 DUP4 ADD MSTORE PUSH2 0x130E DUP2 PUSH2 0x12D2 JUMP JUMPDEST SWAP1 POP SWAP2 SWAP1 POP JUMP JUMPDEST PUSH32 0x4669726577616C6C436F6E73756D65723A206E6F74206E65772061646D696E00 PUSH1 0x0 DUP3 ADD MSTORE POP JUMP JUMPDEST PUSH1 0x0 PUSH2 0x134B PUSH1 0x1F DUP4 PUSH2 0x1168 JUMP JUMPDEST SWAP2 POP PUSH2 0x1356 DUP3 PUSH2 0x1315 JUMP JUMPDEST PUSH1 0x20 DUP3 ADD SWAP1 POP SWAP2 SWAP1 POP JUMP JUMPDEST PUSH1 0x0 PUSH1 0x20 DUP3 ADD SWAP1 POP DUP2 DUP2 SUB PUSH1 0x0 DUP4 ADD MSTORE PUSH2 0x137A DUP2 PUSH2 0x133E JUMP JUMPDEST SWAP1 POP SWAP2 SWAP1 POP JUMP JUMPDEST PUSH32 0x56656E6E4669726577616C6C436F6E73756D65723A204E6F7420656E6F756768 PUSH1 0x0 DUP3 ADD MSTORE PUSH32 0x2045544820666F72206665650000000000000000000000000000000000000000 PUSH1 0x20 DUP3 ADD MSTORE POP JUMP JUMPDEST PUSH1 0x0 PUSH2 0x13DD PUSH1 0x2C DUP4 PUSH2 0x1168 JUMP JUMPDEST SWAP2 POP PUSH2 0x13E8 DUP3 PUSH2 0x1381 JUMP JUMPDEST PUSH1 0x40 DUP3 ADD SWAP1 POP SWAP2 SWAP1 POP JUMP JUMPDEST PUSH1 0x0 PUSH1 0x20 DUP3 ADD SWAP1 POP DUP2 DUP2 SUB PUSH1 0x0 DUP4 ADD MSTORE PUSH2 0x140C DUP2 PUSH2 0x13D0 JUMP JUMPDEST SWAP1 POP SWAP2 SWAP1 POP JUMP JUMPDEST PUSH1 0x0 DUP2 SWAP1 POP SWAP3 SWAP2 POP POP JUMP JUMPDEST PUSH1 0x0 PUSH2 0x142A DUP4 DUP6 PUSH2 0x1413 JUMP JUMPDEST SWAP4 POP PUSH2 0x1437 DUP4 DUP6 DUP5 PUSH2 0x121C JUMP JUMPDEST DUP3 DUP5 ADD SWAP1 POP SWAP4 SWAP3 POP POP POP JUMP JUMPDEST PUSH1 0x0 PUSH2 0x1450 DUP3 DUP5 DUP7 PUSH2 0x141E JUMP JUMPDEST SWAP2 POP DUP2 SWAP1 POP SWAP4 SWAP3 POP POP POP JUMP JUMPDEST PUSH32 0x56656E6E4669726577616C6C436F6E73756D65723A2050726F78792063616C6C PUSH1 0x0 DUP3 ADD MSTORE PUSH32 0x206661696C656400000000000000000000000000000000000000000000000000 PUSH1 0x20 DUP3 ADD MSTORE POP JUMP JUMPDEST PUSH1 0x0 PUSH2 0x14B8 PUSH1 0x27 DUP4 PUSH2 0x1168 JUMP JUMPDEST SWAP2 POP PUSH2 0x14C3 DUP3 PUSH2 0x145C JUMP JUMPDEST PUSH1 0x40 DUP3 ADD SWAP1 POP SWAP2 SWAP1 POP JUMP JUMPDEST PUSH1 0x0 PUSH1 0x20 DUP3 ADD SWAP1 POP DUP2 DUP2 SUB PUSH1 0x0 DUP4 ADD MSTORE PUSH2 0x14E7 DUP2 PUSH2 0x14AB JUMP JUMPDEST SWAP1 POP SWAP2 SWAP1 POP JUMP JUMPDEST PUSH1 0x0 PUSH32 0xFFFFFFFF00000000000000000000000000000000000000000000000000000000 DUP3 AND SWAP1 POP SWAP2 SWAP1 POP JUMP JUMPDEST PUSH2 0x1523 DUP2 PUSH2 0x14EE JUMP JUMPDEST DUP3 MSTORE POP POP JUMP JUMPDEST PUSH1 0x0 PUSH1 0x20 DUP3 ADD SWAP1 POP PUSH2 0x153E PUSH1 0x0 DUP4 ADD DUP5 PUSH2 0x151A JUMP JUMPDEST SWAP3 SWAP2 POP POP JUMP JUMPDEST PUSH1 0x0 DUP2 MLOAD SWAP1 POP SWAP2 SWAP1 POP JUMP JUMPDEST PUSH1 0x0 JUMPDEST DUP4 DUP2 LT ISZERO PUSH2 0x156D JUMPI DUP1 DUP3 ADD MLOAD DUP2 DUP5 ADD MSTORE PUSH1 0x20 DUP2 ADD SWAP1 POP PUSH2 0x1552 JUMP JUMPDEST PUSH1 0x0 DUP5 DUP5 ADD MSTORE POP POP POP POP JUMP JUMPDEST PUSH1 0x0 PUSH2 0x1584 DUP3 PUSH2 0x1544 JUMP JUMPDEST PUSH2 0x158E DUP2 DUP6 PUSH2 0x1413 JUMP JUMPDEST SWAP4 POP PUSH2 0x159E DUP2 DUP6 PUSH1 0x20 DUP7 ADD PUSH2 0x154F JUMP JUMPDEST DUP1 DUP5 ADD SWAP2 POP POP SWAP3 SWAP2 POP POP JUMP JUMPDEST PUSH1 0x0 PUSH2 0x15B6 DUP3 DUP5 PUSH2 0x1579 JUMP JUMPDEST SWAP2 POP DUP2 SWAP1 POP SWAP3 SWAP2 POP POP JUMP JUMPDEST PUSH32 0x416464726573733A2063616C6C20746F206E6F6E2D636F6E7472616374000000 PUSH1 0x0 DUP3 ADD MSTORE POP JUMP JUMPDEST PUSH1 0x0 PUSH2 0x15F7 PUSH1 0x1D DUP4 PUSH2 0x1168 JUMP JUMPDEST SWAP2 POP PUSH2 0x1602 DUP3 PUSH2 0x15C1 JUMP JUMPDEST PUSH1 0x20 DUP3 ADD SWAP1 POP SWAP2 SWAP1 POP JUMP JUMPDEST PUSH1 0x0 PUSH1 0x20 DUP3 ADD SWAP1 POP DUP2 DUP2 SUB PUSH1 0x0 DUP4 ADD MSTORE PUSH2 0x1626 DUP2 PUSH2 0x15EA JUMP JUMPDEST SWAP1 POP SWAP2 SWAP1 POP JUMP JUMPDEST PUSH1 0x0 DUP2 MLOAD SWAP1 POP SWAP2 SWAP1 POP JUMP JUMPDEST PUSH1 0x0 PUSH2 0x1643 DUP3 PUSH2 0x162D JUMP JUMPDEST PUSH2 0x164D DUP2 DUP6 PUSH2 0x1168 JUMP JUMPDEST SWAP4 POP PUSH2 0x165D DUP2 DUP6 PUSH1 0x20 DUP7 ADD PUSH2 0x154F JUMP JUMPDEST PUSH2 0x1666 DUP2 PUSH2 0x122B JUMP JUMPDEST DUP5 ADD SWAP2 POP POP SWAP3 SWAP2 POP POP JUMP JUMPDEST PUSH1 0x0 PUSH1 0x20 DUP3 ADD SWAP1 POP DUP2 DUP2 SUB PUSH1 0x0 DUP4 ADD MSTORE PUSH2 0x168B DUP2 DUP5 PUSH2 0x1638 JUMP JUMPDEST SWAP1 POP SWAP3 SWAP2 POP POP JUMP INVALID COINBASE PUSH5 0x6472657373 GASPRICE KECCAK256 PUSH13 0x6F772D6C6576656C2064656C65 PUSH8 0x6174652063616C6C KECCAK256 PUSH7 0x61696C6564A264 PUSH10 0x70667358221220C77426 0x5C MSTORE PUSH11 0x76DC035FE5D4F499ABC26 DUP2 DUP5 PUSH16 0x71AE3FD3ACDC6252DA7A4A2464736F6C PUSH4 0x43000817 STOP CALLER "},"methodIdentifiers":{"acceptFirewallAdmin()":"7c65c38b","firewallAdmin()":"f05c8582","myMethod()":"70dce926","safeFunctionCall(uint256,bytes,bytes)":"cb09f61f","setAttestationCenterProxy(address)":"54222e6c","setFirewall(address)":"8c36d02d","setFirewallAdmin(address)":"734b7198","value()":"3fa4f245"}}}}}