{
  "_format": "hh-sol-artifact-1",
  "contractName": "VennFirewallConsumerBase",
  "sourceName": "@ironblocks/firewall-consumer/contracts/consumers/VennFirewallConsumerBase.sol",
  "abi": [
    {
      "inputs": [
        {
          "internalType": "address",
          "name": "_firewall",
          "type": "address"
        },
        {
          "internalType": "address",
          "name": "_firewallAdmin",
          "type": "address"
        }
      ],
      "stateMutability": "nonpayable",
      "type": "constructor"
    },
    {
      "anonymous": false,
      "inputs": [
        {
          "indexed": false,
          "internalType": "address",
          "name": "newAdmin",
          "type": "address"
        }
      ],
      "name": "FirewallAdminUpdated",
      "type": "event"
    },
    {
      "anonymous": false,
      "inputs": [
        {
          "indexed": false,
          "internalType": "address",
          "name": "newFirewall",
          "type": "address"
        }
      ],
      "name": "FirewallUpdated",
      "type": "event"
    },
    {
      "inputs": [],
      "name": "acceptFirewallAdmin",
      "outputs": [],
      "stateMutability": "nonpayable",
      "type": "function"
    },
    {
      "inputs": [],
      "name": "firewallAdmin",
      "outputs": [
        {
          "internalType": "address",
          "name": "",
          "type": "address"
        }
      ],
      "stateMutability": "view",
      "type": "function"
    },
    {
      "inputs": [
        {
          "internalType": "uint256",
          "name": "userNativeFee",
          "type": "uint256"
        },
        {
          "internalType": "bytes",
          "name": "proxyPayload",
          "type": "bytes"
        },
        {
          "internalType": "bytes",
          "name": "data",
          "type": "bytes"
        }
      ],
      "name": "safeFunctionCall",
      "outputs": [],
      "stateMutability": "payable",
      "type": "function"
    },
    {
      "inputs": [
        {
          "internalType": "address",
          "name": "attestationCenterProxy",
          "type": "address"
        }
      ],
      "name": "setAttestationCenterProxy",
      "outputs": [],
      "stateMutability": "nonpayable",
      "type": "function"
    },
    {
      "inputs": [
        {
          "internalType": "address",
          "name": "_firewall",
          "type": "address"
        }
      ],
      "name": "setFirewall",
      "outputs": [],
      "stateMutability": "nonpayable",
      "type": "function"
    },
    {
      "inputs": [
        {
          "internalType": "address",
          "name": "_firewallAdmin",
          "type": "address"
        }
      ],
      "name": "setFirewallAdmin",
      "outputs": [],
      "stateMutability": "nonpayable",
      "type": "function"
    }
  ],
  "bytecode": "0x60806040523480156200001157600080fd5b50604051620015b3380380620015b38339818101604052810190620000379190620001d1565b6200007d60017f5dd2e3b890564a8f99f7f203f226a27a8aa59aee19a4ece5cf5eaa77ab91f66260001c6200006d919062000251565b60001b836200015960201b60201c565b620000c360017f29982a6ac507a2a707ced6dee5d76285dd49725db977de83d9702c628c97413660001c620000b3919062000251565b60001b826200015960201b60201c565b6200010a60017f471011fb6f6f818490c7275a3f5781bd5ea022cb5a243dd8f2d009d0882c74a360001c620000f9919062000251565b60001b60016200015960201b60201c565b6200015160017f649dd3ecd011e05f7b661f5786e7205a54d2201cb71ede57000d4047776e204060001c62000140919062000251565b60001b60016200016060201b60201c565b50506200028c565b8082555050565b8082555050565b600080fd5b600073ffffffffffffffffffffffffffffffffffffffff82169050919050565b600062000199826200016c565b9050919050565b620001ab816200018c565b8114620001b757600080fd5b50565b600081519050620001cb81620001a0565b92915050565b60008060408385031215620001eb57620001ea62000167565b5b6000620001fb85828601620001ba565b92505060206200020e85828601620001ba565b9150509250929050565b6000819050919050565b7f4e487b7100000000000000000000000000000000000000000000000000000000600052601160045260246000fd5b60006200025e8262000218565b91506200026b8362000218565b925082820390508181111562000286576200028562000222565b5b92915050565b611317806200029c6000396000f3fe6080604052600436106100555760003560e01c806354222e6c1461005a578063734b7198146100835780637c65c38b146100ac5780638c36d02d146100c3578063cb09f61f146100ec578063f05c858214610108575b600080fd5b34801561006657600080fd5b50610081600480360381019061007c9190610c23565b610133565b005b34801561008f57600080fd5b506100aa60048036038101906100a59190610c23565b610269565b005b3480156100b857600080fd5b506100c16103bf565b005b3480156100cf57600080fd5b506100ea60048036038101906100e59190610c23565b6104dc565b005b61010660048036038101906101019190610ceb565b6105fa565b005b34801561011457600080fd5b5061011d610795565b60405161012a9190610d8f565b60405180910390f35b61016e60017f29982a6ac507a2a707ced6dee5d76285dd49725db977de83d9702c628c97413660001c6101669190610dd9565b60001b6107d7565b73ffffffffffffffffffffffffffffffffffffffff163373ffffffffffffffffffffffffffffffffffffffff16146101db576040517f08c379a00000000000000000000000000000000000000000000000000000000081526004016101d290610e90565b60405180910390fd5b600073ffffffffffffffffffffffffffffffffffffffff168173ffffffffffffffffffffffffffffffffffffffff161461022a5761022081630c908cff60e01b6107e2565b61022957600080fd5b5b61026660017fbb5f5c81badac71dead5c1b29002ce6bbac893e2645c265b13d7499de81ab6e160001c61025d9190610dd9565b60001b826108a1565b50565b6102a460017f29982a6ac507a2a707ced6dee5d76285dd49725db977de83d9702c628c97413660001c61029c9190610dd9565b60001b6107d7565b73ffffffffffffffffffffffffffffffffffffffff163373ffffffffffffffffffffffffffffffffffffffff1614610311576040517f08c379a000000000000000000000000000000000000000000000000000000000815260040161030890610e90565b60405180910390fd5b600073ffffffffffffffffffffffffffffffffffffffff168173ffffffffffffffffffffffffffffffffffffffff1603610380576040517f08c379a000000000000000000000000000000000000000000000000000000000815260040161037790610efc565b60405180910390fd5b6103bc60017f8583d637b7eb6415d11ef26648cf0702cf161a357dfe51b6ff7a332110d4bdd360001c6103b39190610dd9565b60001b826108a1565b50565b6103fa60017f8583d637b7eb6415d11ef26648cf0702cf161a357dfe51b6ff7a332110d4bdd360001c6103f29190610dd9565b60001b6107d7565b73ffffffffffffffffffffffffffffffffffffffff163373ffffffffffffffffffffffffffffffffffffffff1614610467576040517f08c379a000000000000000000000000000000000000000000000000000000000815260040161045e90610f68565b60405180910390fd5b6104a360017f29982a6ac507a2a707ced6dee5d76285dd49725db977de83d9702c628c97413660001c61049a9190610dd9565b60001b336108a1565b7f2763a008a9a724a5da2f35346041f5c552001ab556d786252e1ff4ff798dfc1b336040516104d29190610d8f565b60405180910390a1565b61051760017f29982a6ac507a2a707ced6dee5d76285dd49725db977de83d9702c628c97413660001c61050f9190610dd9565b60001b6107d7565b73ffffffffffffffffffffffffffffffffffffffff163373ffffffffffffffffffffffffffffffffffffffff1614610584576040517f08c379a000000000000000000000000000000000000000000000000000000000815260040161057b90610e90565b60405180910390fd5b6105c060017f5dd2e3b890564a8f99f7f203f226a27a8aa59aee19a4ece5cf5eaa77ab91f66260001c6105b79190610dd9565b60001b826108a1565b7f60c1452966d777aab347837b9ceeaa613af32925b5aab43918e878fd03608670816040516105ef9190610d8f565b60405180910390a150565b8434101561063d576040517f08c379a000000000000000000000000000000000000000000000000000000000815260040161063490610ffa565b60405180910390fd5b610646856108a8565b600061068360017fbb5f5c81badac71dead5c1b29002ce6bbac893e2645c265b13d7499de81ab6e160001c61067b9190610dd9565b60001b6107d7565b905060008173ffffffffffffffffffffffffffffffffffffffff168787876040516106af929190611059565b60006040518083038185875af1925050503d80600081146106ec576040519150601f19603f3d011682016040523d82523d6000602084013e6106f1565b606091505b5050905080610735576040517f08c379a000000000000000000000000000000000000000000000000000000000815260040161072c906110e4565b60405180910390fd5b6107833085858080601f016020809104026020016040519081016040528093929190818152602001838380828437600081840152601f19601f82011690508083019250505050505050610960565b5061078c61098d565b50505050505050565b60006107d260017f29982a6ac507a2a707ced6dee5d76285dd49725db977de83d9702c628c97413660001c6107ca9190610dd9565b60001b6107d7565b905090565b600081549050919050565b6000806301ffc9a760e01b836040516024016107fe919061113f565b604051602081830303815290604052907bffffffffffffffffffffffffffffffffffffffffffffffffffffffff19166020820180517bffffffffffffffffffffffffffffffffffffffffffffffffffffffff838183161783525050505090506000806000602060008551602087018a617530fa92503d91506000519050828015610889575060208210155b80156108955750600081115b94505050505092915050565b8082555050565b6108e460017f471011fb6f6f818490c7275a3f5781bd5ea022cb5a243dd8f2d009d0882c74a360001c6108db9190610dd9565b60001b336108a1565b61092160017f649dd3ecd011e05f7b661f5786e7205a54d2201cb71ede57000d4047776e204060001c6109179190610dd9565b60001b6002610a46565b61095d60017f249fe6ee22e6e15273c690c436e9cd06968fe8fb9e18a17365c2d2aa2add4e7260001c6109549190610dd9565b60001b82610a46565b50565b606061098583836040518060600160405280602781526020016112bb60279139610a4d565b905092915050565b6109ca60017f471011fb6f6f818490c7275a3f5781bd5ea022cb5a243dd8f2d009d0882c74a360001c6109c09190610dd9565b60001b60016108a1565b610a0760017f649dd3ecd011e05f7b661f5786e7205a54d2201cb71ede57000d4047776e204060001c6109fd9190610dd9565b60001b6001610a46565b610a4460017f249fe6ee22e6e15273c690c436e9cd06968fe8fb9e18a17365c2d2aa2add4e7260001c610a3a9190610dd9565b60001b6000610a46565b565b8082555050565b60606000808573ffffffffffffffffffffffffffffffffffffffff1685604051610a7791906111c0565b600060405180830381855af49150503d8060008114610ab2576040519150601f19603f3d011682016040523d82523d6000602084013e610ab7565b606091505b5091509150610ac886838387610ad3565b925050509392505050565b60608315610b35576000835103610b2d57610aed85610b48565b610b2c576040517f08c379a0000000000000000000000000000000000000000000000000000000008152600401610b2390611223565b60405180910390fd5b5b829050610b40565b610b3f8383610b6b565b5b949350505050565b6000808273ffffffffffffffffffffffffffffffffffffffff163b119050919050565b600082511115610b7e5781518083602001fd5b806040517f08c379a0000000000000000000000000000000000000000000000000000000008152600401610bb29190611298565b60405180910390fd5b600080fd5b600080fd5b600073ffffffffffffffffffffffffffffffffffffffff82169050919050565b6000610bf082610bc5565b9050919050565b610c0081610be5565b8114610c0b57600080fd5b50565b600081359050610c1d81610bf7565b92915050565b600060208284031215610c3957610c38610bbb565b5b6000610c4784828501610c0e565b91505092915050565b6000819050919050565b610c6381610c50565b8114610c6e57600080fd5b50565b600081359050610c8081610c5a565b92915050565b600080fd5b600080fd5b600080fd5b60008083601f840112610cab57610caa610c86565b5b8235905067ffffffffffffffff811115610cc857610cc7610c8b565b5b602083019150836001820283011115610ce457610ce3610c90565b5b9250929050565b600080600080600060608688031215610d0757610d06610bbb565b5b6000610d1588828901610c71565b955050602086013567ffffffffffffffff811115610d3657610d35610bc0565b5b610d4288828901610c95565b9450945050604086013567ffffffffffffffff811115610d6557610d64610bc0565b5b610d7188828901610c95565b92509250509295509295909350565b610d8981610be5565b82525050565b6000602082019050610da46000830184610d80565b92915050565b7f4e487b7100000000000000000000000000000000000000000000000000000000600052601160045260246000fd5b6000610de482610c50565b9150610def83610c50565b9250828203905081811115610e0757610e06610daa565b5b92915050565b600082825260208201905092915050565b7f4669726577616c6c436f6e73756d65723a206e6f74206669726577616c6c206160008201527f646d696e00000000000000000000000000000000000000000000000000000000602082015250565b6000610e7a602483610e0d565b9150610e8582610e1e565b604082019050919050565b60006020820190508181036000830152610ea981610e6d565b9050919050565b7f4669726577616c6c436f6e73756d65723a207a65726f20616464726573730000600082015250565b6000610ee6601e83610e0d565b9150610ef182610eb0565b602082019050919050565b60006020820190508181036000830152610f1581610ed9565b9050919050565b7f4669726577616c6c436f6e73756d65723a206e6f74206e65772061646d696e00600082015250565b6000610f52601f83610e0d565b9150610f5d82610f1c565b602082019050919050565b60006020820190508181036000830152610f8181610f45565b9050919050565b7f56656e6e4669726577616c6c436f6e73756d65723a204e6f7420656e6f75676860008201527f2045544820666f72206665650000000000000000000000000000000000000000602082015250565b6000610fe4602c83610e0d565b9150610fef82610f88565b604082019050919050565b6000602082019050818103600083015261101381610fd7565b9050919050565b600081905092915050565b82818337600083830152505050565b6000611040838561101a565b935061104d838584611025565b82840190509392505050565b6000611066828486611034565b91508190509392505050565b7f56656e6e4669726577616c6c436f6e73756d65723a2050726f78792063616c6c60008201527f206661696c656400000000000000000000000000000000000000000000000000602082015250565b60006110ce602783610e0d565b91506110d982611072565b604082019050919050565b600060208201905081810360008301526110fd816110c1565b9050919050565b60007fffffffff0000000000000000000000000000000000000000000000000000000082169050919050565b61113981611104565b82525050565b60006020820190506111546000830184611130565b92915050565b600081519050919050565b60005b83811015611183578082015181840152602081019050611168565b60008484015250505050565b600061119a8261115a565b6111a4818561101a565b93506111b4818560208601611165565b80840191505092915050565b60006111cc828461118f565b915081905092915050565b7f416464726573733a2063616c6c20746f206e6f6e2d636f6e7472616374000000600082015250565b600061120d601d83610e0d565b9150611218826111d7565b602082019050919050565b6000602082019050818103600083015261123c81611200565b9050919050565b600081519050919050565b6000601f19601f8301169050919050565b600061126a82611243565b6112748185610e0d565b9350611284818560208601611165565b61128d8161124e565b840191505092915050565b600060208201905081810360008301526112b2818461125f565b90509291505056fe416464726573733a206c6f772d6c6576656c2064656c65676174652063616c6c206661696c6564a264697066735822122085dace564c2705520a587036be88bfc08a227e1b3cb84294725bc35ccd063f8264736f6c63430008170033",
  "linkReferences": {},
  "deployedLinkReferences": {}
}