{
  "_format": "hh-sol-artifact-1",
  "contractName": "Rare",
  "sourceName": "contracts/srare.sol",
  "abi": [
    {
      "anonymous": false,
      "inputs": [
        {
          "indexed": false,
          "internalType": "address",
          "name": "newAdmin",
          "type": "address"
        }
      ],
      "name": "FirewallAdminUpdated",
      "type": "event"
    },
    {
      "anonymous": false,
      "inputs": [
        {
          "indexed": false,
          "internalType": "address",
          "name": "newFirewall",
          "type": "address"
        }
      ],
      "name": "FirewallUpdated",
      "type": "event"
    },
    {
      "inputs": [],
      "name": "acceptFirewallAdmin",
      "outputs": [],
      "stateMutability": "nonpayable",
      "type": "function"
    },
    {
      "inputs": [],
      "name": "firewallAdmin",
      "outputs": [
        {
          "internalType": "address",
          "name": "",
          "type": "address"
        }
      ],
      "stateMutability": "view",
      "type": "function"
    },
    {
      "inputs": [],
      "name": "myMethod",
      "outputs": [],
      "stateMutability": "nonpayable",
      "type": "function"
    },
    {
      "inputs": [
        {
          "internalType": "uint256",
          "name": "userNativeFee",
          "type": "uint256"
        },
        {
          "internalType": "bytes",
          "name": "proxyPayload",
          "type": "bytes"
        },
        {
          "internalType": "bytes",
          "name": "data",
          "type": "bytes"
        }
      ],
      "name": "safeFunctionCall",
      "outputs": [],
      "stateMutability": "payable",
      "type": "function"
    },
    {
      "inputs": [
        {
          "internalType": "address",
          "name": "attestationCenterProxy",
          "type": "address"
        }
      ],
      "name": "setAttestationCenterProxy",
      "outputs": [],
      "stateMutability": "nonpayable",
      "type": "function"
    },
    {
      "inputs": [
        {
          "internalType": "address",
          "name": "_firewall",
          "type": "address"
        }
      ],
      "name": "setFirewall",
      "outputs": [],
      "stateMutability": "nonpayable",
      "type": "function"
    },
    {
      "inputs": [
        {
          "internalType": "address",
          "name": "_firewallAdmin",
          "type": "address"
        }
      ],
      "name": "setFirewallAdmin",
      "outputs": [],
      "stateMutability": "nonpayable",
      "type": "function"
    },
    {
      "inputs": [],
      "name": "value",
      "outputs": [
        {
          "internalType": "uint256",
          "name": "",
          "type": "uint256"
        }
      ],
      "stateMutability": "view",
      "type": "function"
    }
  ],
  "bytecode": "0x60806040523480156200001157600080fd5b506000336200005b60017f5dd2e3b890564a8f99f7f203f226a27a8aa59aee19a4ece5cf5eaa77ab91f66260001c6200004b91906200017e565b60001b836200013760201b60201c565b620000a160017f29982a6ac507a2a707ced6dee5d76285dd49725db977de83d9702c628c97413660001c6200009191906200017e565b60001b826200013760201b60201c565b620000e860017f471011fb6f6f818490c7275a3f5781bd5ea022cb5a243dd8f2d009d0882c74a360001c620000d791906200017e565b60001b60016200013760201b60201c565b6200012f60017f649dd3ecd011e05f7b661f5786e7205a54d2201cb71ede57000d4047776e204060001c6200011e91906200017e565b60001b60016200013e60201b60201c565b5050620001b9565b8082555050565b8082555050565b6000819050919050565b7f4e487b7100000000000000000000000000000000000000000000000000000000600052601160045260246000fd5b60006200018b8262000145565b9150620001988362000145565b9250828203905081811115620001b357620001b26200014f565b5b92915050565b6116f080620001c96000396000f3fe60806040526004361061007b5760003560e01c80637c65c38b1161004e5780637c65c38b146101145780638c36d02d1461012b578063cb09f61f14610154578063f05c8582146101705761007b565b80633fa4f2451461008057806354222e6c146100ab57806370dce926146100d4578063734b7198146100eb575b600080fd5b34801561008c57600080fd5b5061009561019b565b6040516100a29190610f05565b60405180910390f35b3480156100b757600080fd5b506100d260048036038101906100cd9190610f88565b6101a1565b005b3480156100e057600080fd5b506100e96102d7565b005b3480156100f757600080fd5b50610112600480360381019061010d9190610f88565b61046d565b005b34801561012057600080fd5b506101296105c3565b005b34801561013757600080fd5b50610152600480360381019061014d9190610f88565b6106e0565b005b61016e60048036038101906101699190611046565b6107fe565b005b34801561017c57600080fd5b50610185610999565b60405161019291906110ea565b60405180910390f35b60005481565b6101dc60017f29982a6ac507a2a707ced6dee5d76285dd49725db977de83d9702c628c97413660001c6101d49190611134565b60001b6109db565b73ffffffffffffffffffffffffffffffffffffffff163373ffffffffffffffffffffffffffffffffffffffff1614610249576040517f08c379a0000000000000000000000000000000000000000000000000000000008152600401610240906111eb565b60405180910390fd5b600073ffffffffffffffffffffffffffffffffffffffff168173ffffffffffffffffffffffffffffffffffffffff16146102985761028e81630c908cff60e01b6109e6565b61029757600080fd5b5b6102d460017fbb5f5c81badac71dead5c1b29002ce6bbac893e2645c265b13d7499de81ab6e160001c6102cb9190611134565b60001b82610aa5565b50565b600061031460017f5dd2e3b890564a8f99f7f203f226a27a8aa59aee19a4ece5cf5eaa77ab91f66260001c61030c9190611134565b60001b6109db565b9050600073ffffffffffffffffffffffffffffffffffffffff168173ffffffffffffffffffffffffffffffffffffffff160361035857602a6000819055505061046b565b6000610362610aac565b90508173ffffffffffffffffffffffffffffffffffffffff16636fe1967c610388610bb9565b610390610bc1565b856040518563ffffffff1660e01b81526004016103b09493929190611269565b600060405180830381600087803b1580156103ca57600080fd5b505af11580156103de573d6000803e3d6000fd5b50505050602a6000819055508173ffffffffffffffffffffffffffffffffffffffff166393163a9161040e610bb9565b610416610bc1565b856040518563ffffffff1660e01b81526004016104369493929190611269565b600060405180830381600087803b15801561045057600080fd5b505af1158015610464573d6000803e3d6000fd5b5050505050505b565b6104a860017f29982a6ac507a2a707ced6dee5d76285dd49725db977de83d9702c628c97413660001c6104a09190611134565b60001b6109db565b73ffffffffffffffffffffffffffffffffffffffff163373ffffffffffffffffffffffffffffffffffffffff1614610515576040517f08c379a000000000000000000000000000000000000000000000000000000000815260040161050c906111eb565b60405180910390fd5b600073ffffffffffffffffffffffffffffffffffffffff168173ffffffffffffffffffffffffffffffffffffffff1603610584576040517f08c379a000000000000000000000000000000000000000000000000000000000815260040161057b906112f5565b60405180910390fd5b6105c060017f8583d637b7eb6415d11ef26648cf0702cf161a357dfe51b6ff7a332110d4bdd360001c6105b79190611134565b60001b82610aa5565b50565b6105fe60017f8583d637b7eb6415d11ef26648cf0702cf161a357dfe51b6ff7a332110d4bdd360001c6105f69190611134565b60001b6109db565b73ffffffffffffffffffffffffffffffffffffffff163373ffffffffffffffffffffffffffffffffffffffff161461066b576040517f08c379a000000000000000000000000000000000000000000000000000000000815260040161066290611361565b60405180910390fd5b6106a760017f29982a6ac507a2a707ced6dee5d76285dd49725db977de83d9702c628c97413660001c61069e9190611134565b60001b33610aa5565b7f2763a008a9a724a5da2f35346041f5c552001ab556d786252e1ff4ff798dfc1b336040516106d691906110ea565b60405180910390a1565b61071b60017f29982a6ac507a2a707ced6dee5d76285dd49725db977de83d9702c628c97413660001c6107139190611134565b60001b6109db565b73ffffffffffffffffffffffffffffffffffffffff163373ffffffffffffffffffffffffffffffffffffffff1614610788576040517f08c379a000000000000000000000000000000000000000000000000000000000815260040161077f906111eb565b60405180910390fd5b6107c460017f5dd2e3b890564a8f99f7f203f226a27a8aa59aee19a4ece5cf5eaa77ab91f66260001c6107bb9190611134565b60001b82610aa5565b7f60c1452966d777aab347837b9ceeaa613af32925b5aab43918e878fd03608670816040516107f391906110ea565b60405180910390a150565b84341015610841576040517f08c379a0000000000000000000000000000000000000000000000000000000008152600401610838906113f3565b60405180910390fd5b61084a85610bce565b600061088760017fbb5f5c81badac71dead5c1b29002ce6bbac893e2645c265b13d7499de81ab6e160001c61087f9190611134565b60001b6109db565b905060008173ffffffffffffffffffffffffffffffffffffffff168787876040516108b3929190611443565b60006040518083038185875af1925050503d80600081146108f0576040519150601f19603f3d011682016040523d82523d6000602084013e6108f5565b606091505b5050905080610939576040517f08c379a0000000000000000000000000000000000000000000000000000000008152600401610930906114ce565b60405180910390fd5b6109873085858080601f016020809104026020016040519081016040528093929190818152602001838380828437600081840152601f19601f82011690508083019250505050505050610c86565b50610990610cb3565b50505050505050565b60006109d660017f29982a6ac507a2a707ced6dee5d76285dd49725db977de83d9702c628c97413660001c6109ce9190611134565b60001b6109db565b905090565b600081549050919050565b6000806301ffc9a760e01b83604051602401610a029190611529565b604051602081830303815290604052907bffffffffffffffffffffffffffffffffffffffffffffffffffffffff19166020820180517bffffffffffffffffffffffffffffffffffffffffffffffffffffffff838183161783525050505090506000806000602060008551602087018a617530fa92503d91506000519050828015610a8d575060208210155b8015610a995750600081115b94505050505092915050565b8082555050565b60003490506002610aee60017f649dd3ecd011e05f7b661f5786e7205a54d2201cb71ede57000d4047776e204060001c610ae69190611134565b60001b610d6c565b60001c03610bb657610b3160017f471011fb6f6f818490c7275a3f5781bd5ea022cb5a243dd8f2d009d0882c74a360001c610b299190611134565b60001b6109db565b73ffffffffffffffffffffffffffffffffffffffff163373ffffffffffffffffffffffffffffffffffffffff1603610bb5576000610ba060017f249fe6ee22e6e15273c690c436e9cd06968fe8fb9e18a17365c2d2aa2add4e7260001c610b989190611134565b60001b610d6c565b60001c90508082610bb19190611134565b9150505b5b90565b600033905090565b3660008036915091509091565b610c0a60017f471011fb6f6f818490c7275a3f5781bd5ea022cb5a243dd8f2d009d0882c74a360001c610c019190611134565b60001b33610aa5565b610c4760017f649dd3ecd011e05f7b661f5786e7205a54d2201cb71ede57000d4047776e204060001c610c3d9190611134565b60001b6002610d77565b610c8360017f249fe6ee22e6e15273c690c436e9cd06968fe8fb9e18a17365c2d2aa2add4e7260001c610c7a9190611134565b60001b82610d77565b50565b6060610cab838360405180606001604052806027815260200161169460279139610d7e565b905092915050565b610cf060017f471011fb6f6f818490c7275a3f5781bd5ea022cb5a243dd8f2d009d0882c74a360001c610ce69190611134565b60001b6001610aa5565b610d2d60017f649dd3ecd011e05f7b661f5786e7205a54d2201cb71ede57000d4047776e204060001c610d239190611134565b60001b6001610d77565b610d6a60017f249fe6ee22e6e15273c690c436e9cd06968fe8fb9e18a17365c2d2aa2add4e7260001c610d609190611134565b60001b6000610d77565b565b600081549050919050565b8082555050565b60606000808573ffffffffffffffffffffffffffffffffffffffff1685604051610da891906115aa565b600060405180830381855af49150503d8060008114610de3576040519150601f19603f3d011682016040523d82523d6000602084013e610de8565b606091505b5091509150610df986838387610e04565b925050509392505050565b60608315610e66576000835103610e5e57610e1e85610e79565b610e5d576040517f08c379a0000000000000000000000000000000000000000000000000000000008152600401610e549061160d565b60405180910390fd5b5b829050610e71565b610e708383610e9c565b5b949350505050565b6000808273ffffffffffffffffffffffffffffffffffffffff163b119050919050565b600082511115610eaf5781518083602001fd5b806040517f08c379a0000000000000000000000000000000000000000000000000000000008152600401610ee39190611671565b60405180910390fd5b6000819050919050565b610eff81610eec565b82525050565b6000602082019050610f1a6000830184610ef6565b92915050565b600080fd5b600080fd5b600073ffffffffffffffffffffffffffffffffffffffff82169050919050565b6000610f5582610f2a565b9050919050565b610f6581610f4a565b8114610f7057600080fd5b50565b600081359050610f8281610f5c565b92915050565b600060208284031215610f9e57610f9d610f20565b5b6000610fac84828501610f73565b91505092915050565b610fbe81610eec565b8114610fc957600080fd5b50565b600081359050610fdb81610fb5565b92915050565b600080fd5b600080fd5b600080fd5b60008083601f84011261100657611005610fe1565b5b8235905067ffffffffffffffff81111561102357611022610fe6565b5b60208301915083600182028301111561103f5761103e610feb565b5b9250929050565b60008060008060006060868803121561106257611061610f20565b5b600061107088828901610fcc565b955050602086013567ffffffffffffffff81111561109157611090610f25565b5b61109d88828901610ff0565b9450945050604086013567ffffffffffffffff8111156110c0576110bf610f25565b5b6110cc88828901610ff0565b92509250509295509295909350565b6110e481610f4a565b82525050565b60006020820190506110ff60008301846110db565b92915050565b7f4e487b7100000000000000000000000000000000000000000000000000000000600052601160045260246000fd5b600061113f82610eec565b915061114a83610eec565b925082820390508181111561116257611161611105565b5b92915050565b600082825260208201905092915050565b7f4669726577616c6c436f6e73756d65723a206e6f74206669726577616c6c206160008201527f646d696e00000000000000000000000000000000000000000000000000000000602082015250565b60006111d5602483611168565b91506111e082611179565b604082019050919050565b60006020820190508181036000830152611204816111c8565b9050919050565b600082825260208201905092915050565b82818337600083830152505050565b6000601f19601f8301169050919050565b6000611248838561120b565b935061125583858461121c565b61125e8361122b565b840190509392505050565b600060608201905061127e60008301876110db565b818103602083015261129181858761123c565b90506112a06040830184610ef6565b95945050505050565b7f4669726577616c6c436f6e73756d65723a207a65726f20616464726573730000600082015250565b60006112df601e83611168565b91506112ea826112a9565b602082019050919050565b6000602082019050818103600083015261130e816112d2565b9050919050565b7f4669726577616c6c436f6e73756d65723a206e6f74206e65772061646d696e00600082015250565b600061134b601f83611168565b915061135682611315565b602082019050919050565b6000602082019050818103600083015261137a8161133e565b9050919050565b7f56656e6e4669726577616c6c436f6e73756d65723a204e6f7420656e6f75676860008201527f2045544820666f72206665650000000000000000000000000000000000000000602082015250565b60006113dd602c83611168565b91506113e882611381565b604082019050919050565b6000602082019050818103600083015261140c816113d0565b9050919050565b600081905092915050565b600061142a8385611413565b935061143783858461121c565b82840190509392505050565b600061145082848661141e565b91508190509392505050565b7f56656e6e4669726577616c6c436f6e73756d65723a2050726f78792063616c6c60008201527f206661696c656400000000000000000000000000000000000000000000000000602082015250565b60006114b8602783611168565b91506114c38261145c565b604082019050919050565b600060208201905081810360008301526114e7816114ab565b9050919050565b60007fffffffff0000000000000000000000000000000000000000000000000000000082169050919050565b611523816114ee565b82525050565b600060208201905061153e600083018461151a565b92915050565b600081519050919050565b60005b8381101561156d578082015181840152602081019050611552565b60008484015250505050565b600061158482611544565b61158e8185611413565b935061159e81856020860161154f565b80840191505092915050565b60006115b68284611579565b915081905092915050565b7f416464726573733a2063616c6c20746f206e6f6e2d636f6e7472616374000000600082015250565b60006115f7601d83611168565b9150611602826115c1565b602082019050919050565b60006020820190508181036000830152611626816115ea565b9050919050565b600081519050919050565b60006116438261162d565b61164d8185611168565b935061165d81856020860161154f565b6116668161122b565b840191505092915050565b6000602082019050818103600083015261168b8184611638565b90509291505056fe416464726573733a206c6f772d6c6576656c2064656c65676174652063616c6c206661696c6564a2646970667358221220c774265c526a076dc035fe5d4f499abc2681846f71ae3fd3acdc6252da7a4a2464736f6c63430008170033",
  "linkReferences": {},
  "deployedLinkReferences": {}
}